:020000040000FA
:060000000A128A110C280F
:10000800FE00030EF0000A08F1000A128A111129F5
:100018000A128A110F28F601F70183010A128A11C0
:100028002E29F400CD28831603130514831603170D
:100038000814C330831203139F0501298316031381
:100048008514831603178814831203131F08C339F2
:1000580004389F0001298316031305158316031717
:100068000815831203131F08C33908389F00012994
:100078008316031385158316031788158312031334
:100088001F08C3390C389F000129831603138516EE
:10009800831603170816831203131F08C339103871
:1000A8009F00012983160313091483160317881662
:1000B800831203131F08C33914389F0001298316BC
:1000C80003130915831603170817831203131F0850
:1000D800C33918389F00012983160313891583161D
:1000E80003178817831203131F08C3391C389F008E
:1000F800012983160313061583160317091483129F
:1001080003131F08C33920389F00012983160313DE
:100118008615831603178914831203131F08C3391E
:1001280024389F00012983160313861483160317A6
:100138000915831203131F08C33928389F000129A2
:1001480083160313061683160317891583120313E0
:100158001F08C3392C389F0001298316031306147E
:10016800831603170916831203131F08C33930387F
:100178009F00012983160313861683160317891611
:10018800831203131F08C33934389F000129003034
:1001980010297408F200F3017308003A0319D528EE
:1001A800CB287208003A03191728013A03192228A4
:1001B800033A03192F28013A03193C28073A03196F
:1001C8004928013A03195628033A03196328013AC2
:1001D800031970280F3A03197D28013A03198A2850
:1001E800033A03199728013A0319A428073A03196F
:1001F800B128013A0319BE28CB281F141730F20082
:10020800F20B0429831203139F149F1C0C290D2938
:100218000E2909291F101E0808008B170B178312B7
:1002280003138C1D18291929272983160313141859
:100238001E291F292329831203131308880078080D
:10024800831293008C1171088A00700E8300FE0ED1
:100258007E0E09000A128A1149210A128A110A120D
:100268008A1181210A128A1100300A128A11152076
:100278000A128A11F5007508F8007808831203132A
:10028800860038290A128A110C288316031386015E
:1002980083120313860183160317880189018316C5
:1002A800031388018312031388010A128A11772124
:1002B8000A128A110A128A1164210A128A11080084
:1002C80083160313871587128516243083120313A8
:1002D8009400831603139401831203138C1183165D
:1002E80003138C150800831203131F083F39403885
:1002F8009F00831603139F0108008B170B17080034
:04400E00D120FF3F7F
:00000001FF
