:020000040000FA
:060000000A128A110C280F
:10000800FE00030EF0000A08F1000A128A114429C2
:100018000A128A110F2883010A128A110F29F40083
:10002800CB28831603130514831603170814C3304B
:10003800831203139F05FF28831603138514831661
:1000480003178814831203131F08C33904389F0049
:10005800FF28831603130515831603170815831243
:1000680003131F08C33908389F00FF28831603139A
:100078008515831603178815831203131F08C339C0
:100088000C389F00FF288316031385168316031761
:100098000816831203131F08C33910389F00FF285E
:1000A8008316031309148316031788168312031380
:1000B8001F08C33914389F00FF2883160313091536
:1000C800831603170817831203131F08C339183838
:1000D8009F00FF28831603138915831603178817B3
:1000E800831203131F08C3391C389F00FF28831687
:1000F80003130615831603170914831203131F0825
:10010800C33920389F00FF288316031386158316EA
:1001180003178914831203131F08C33924389F0057
:10012800FF288316031386148316031709158312F1
:1001380003131F08C33928389F00FF2883160313A9
:100148000616831603178915831203131F08C3396C
:100158002C389F00FF2883160313061483160317F1
:100168000916831203131F08C33930389F00FF286C
:10017800831603138616831603178916831203132F
:100188001F08C33934389F00FF2800300E2974082F
:10019800F200F3017308003A0319D328C92872083A
:1001A800003A03191528013A03192028033A0319BC
:1001B8002D28013A03193A28073A03194728013A22
:1001C80003195428033A03196128013A03196E28C0
:1001D8000F3A03197B28013A03198828033A0319AF
:1001E8009528013A0319A228073A0319AF28013ABA
:1001F8000319BC28C9281F140D30F200F20B02297C
:10020800831203139F149F1C0A290B290C29072901
:100218001F101E0808000A128A112A210A128A11C0
:100228000A128A114D210A128A1100300A128A1103
:1002380013200A128A11F5007508F6007608831251
:100248000313860019290A128A110C28831603132E
:100258008601831203138601831603178801890117
:100268000A128A113A210A128A110800831203130A
:100278001F083F3940389F00831603139F01080069
:100288008B170B1771088A00700E8300FE0E7E0E06
:0802980009008B170B17080089
:04400E00D120FF3F7F
:00000001FF
