:020000040000FA
:060000000A128A110C280F
:10000800FE00030EFB000A08FC000A128A11E32D09
:100018000A128A110F2883010A128A110F2E8312DD
:10002800031331088039B6003608BB003108B60022
:100038003607B7003708C100B01F23282428252811
:1000480041144108031929282A283928410A031D7F
:100058002E282F2837280030B1000030B00000309B
:10006800AF000030AE00B01741280030B1000030BA
:10007800B0000030AF000030AE0035088039B6005F
:100088003608BB063508B6003607B7003708C00083
:10009800B41F4F28502851284014400803195528E8
:1000A80056286528400A031D5A285B286328003013
:1000B800B5000030B4000030B3000030B200B4170F
:1000C8006D280030B5000030B4000030B3000030B7
:1000D800B200400803197128722877284108031DC7
:1000E8007628772880280030B1000030B000003032
:1000F800AF000030AE00732B2E08B6003608A00003
:1001080034080A128A113A260A128A118312031332
:100118002108C7002008C6004608B600B701B80184
:10012800B9013908BF003808BE003708BD003608D5
:10013800BC004708B600B701B801B9013908C500C5
:100148003808C4003708C3003608C2002F08B600B4
:100158003608A00033080A128A113A260A128A11B0
:10016800831203132108C7002008C6004608B600FA
:10017800B701B801B9013608BC07370803110318DD
:10018800013E0319C828BD07380803110318013EAA
:100198000319CF28BE07390803110318013E0319B4
:1001A800D628BF074708B600B701B801B901360815
:1001B800C207370803110318013E0319E428C307CF
:1001C800380803110318013E0319EB28C40739083E
:1001D80003110318013E0319F228C5073008B600B9
:1001E8003608A00032080A128A113A260A128A1121
:1001F800831203132108C7002008C6004608B6006A
:10020800B701B801B9013608BC073708031103184C
:10021800013E03191029BD07380803110318013ED0
:1002280003191729BE07390803110318013E0319DA
:100238001E29BF074708B600B701B801B90136083B
:10024800C207370803110318013E03192C29C307F5
:10025800380803110318013E03193329C407390864
:1002680003110318013E03193A29C5070830B600DF
:100278000310BC0DBD0DBE0DBF0DB60B3C292F08DC
:10028800B6003608A00032080A128A113A260A1265
:100298008A11831203132108C7002008C6004608E4
:1002A800B6004708B700B801B9013608BC073708D7
:1002B80003110318013E03196229BD073808031109
:1002C8000318013E03196929BE07390803110318E9
:1002D800013E03197029BF072E08B6003608A00092
:1002E80033080A128A113A260A128A118312031352
:1002F8002108C7002008C6004608B6004708B7000E
:10030800B801B9013608BC07370803110318013EC4
:1003180003198F29BD07380803110318013E031973
:100328009629BE07390803110318013E03199D29B0
:10033800BF070830B6000310BC0DBD0DBE0DBF0DC4
:10034800B60B9F292E08B6003608A00032080A12FC
:100358008A113A260A128A11831203132108C70048
:100368002008C6004608B6004708B700B801B9011A
:100378003608BC07370803110318013E0319C529BD
:10038800BD07380803110318013E0319CC29BE071D
:10039800390803110318013E0319D329BF072F0891
:1003A800B6003608A00034080A128A113A260A1242
:1003B8008A11831203132108C7002008C6004608C3
:1003C800B6004708B700B801B9013608C2073708B0
:1003D80003110318013E0319F229C3073808031152
:1003E8000318013E0319F929C40739080311031832
:1003F800013E0319002AC5073008B6003608A000D8
:1004080033080A128A113A260A128A118312031330
:100418002108C7002008C6004608B6004708B700EC
:10042800B801B9013608C207370803110318013E9D
:1004380003191F2AC307380803110318013E0319BB
:10044800262AC407390803110318013E03192D2A67
:10045800C5073008B6003608A00034080A128A1109
:100468003A260A128A11831203132108C7002008AA
:10047800C6004608B6004708B700B801B9010830F9
:100488000310B60DB70DB80DB90DFF3E031D442A74
:100498003608C207370803110318013E0319552A05
:1004A800C307380803110318013E03195C2AC4075F
:1004B800390803110318013E0319632AC5073C08CC
:1004C800B6003D08B7003E08B8003F08B90018302C
:1004D8000310B90CB80CB70CB60CFF3E031D6C2A00
:1004E8003608C207370803110318013E03197D2A8D
:1004F800C307380803110318013E0319842AC407E7
:10050800390803110318013E03198B2AC50708305F
:10051800B6000310BC0DBD0DBE0DBF0DB60B8D2A68
:1005280041084007B600B701B70D3608823EC6003D
:1005380037080318013EFF3EC700BF2A0130B60046
:100548000310C20DC30DC40DC50DB60BA42ABF1FE1
:10055800AE2AAF2AB02A42140130B6000310BC0DEF
:10056800BD0DBE0DBF0DB60BB22AFF30C60703186E
:10057800C70AFF30C707C41FC22AC32AA22AC0015C
:10058800BF1FC72AC82AE42AFF303C05B600FF303F
:100598003D05B700FF303E05B8007F303F05B90084
:1005A80039083804370436040319DB2ADC2ADF2A21
:1005B800C001C00AE42A421CE22AE32AE42ADC2A0F
:1005C80040080319E82AE92A1A2B0130C20700302B
:1005D80003180130C307003003180130C407003086
:1005E80003180130C507451CFA2AFB2A1A2B4208B2
:1005F800B6004308B7004408B8004508B900013000
:10060800BA00390DB90CB80CB70CB60CBA0B052BDF
:100618003908C5003808C4003708C3003608C200C6
:100628000130C6070318C70A0030C7074708803AD1
:10063800FF0080307F02031D232BFF304602031C7E
:10064800262B272B322B7F3083120313C5008030D3
:10065800C4000030C3000030C200672B83120313AC
:100668004708803AFF0080307F02031D3D2B013090
:1006780046020318402B412B4D2B003083120313E5
:10068800C5000030C4000030C3000030C200BB0108
:10069800672B831203134608B6003608C100FF30E3
:1006A800C205FF30C3057F30C4050030C505411CB5
:1006B8005E2B5F2B602BC4174108B6000310360C65
:1006C800B7003708C5003B08B6003608C50445081A
:1006D800B1004408B0004308AF004208AE0008006B
:1006E80083120313A2002E2C8316031305148316FA
:1006F80003170814C330831203139F05622C831653
:1007080003138514831603178814831203131F0811
:10071800C33904389F00622C83160313051583160A
:1007280003170815831203131F08C33908389F00DD
:10073800622C8316031385158316031788158312F5
:1007480003131F08C3390C389F00622C8316031348
:100758008516831603170816831203131F08C33957
:1007680010389F00622C831603130914831603178D
:100778008816831203131F08C33914389F00622C8C
:100788008316031309158316031708178312031317
:100798001F08C33918389F00622C83160313891564
:1007A800831603178817831203131F08C3391C38CD
:1007B8009F00622C8316031306158316031709146A
:1007C800831203131F08C33920389F00622C831635
:1007D80003138615831603178914831203131F083E
:1007E800C33924389F00622C83160313861483169A
:1007F80003170915831203131F08C33928389F00EC
:10080800622C8316031306168316031789158312A1
:1008180003131F08C3392C389F00622C8316031357
:100828000614831603170916831203131F08C33906
:1008380030389F00622C831603138616831603171D
:100848008916831203131F08C33934389F00622C9A
:100858000030742C2208A000A1012108003A0319D5
:10086800362C2C2C2008003A0319782B013A03194E
:10087800832B033A0319902B013A03199D2B073A4E
:100888000319AA2B013A0319B72B033A0319C42BEE
:10089800013A0319D12B0F3A0319DE2B013A031938
:1008A800EB2B033A0319F82B013A0319052C073AE5
:1008B8000319122C013A03191F2C2C2C1F140C306D
:1008C80083120313A000A00B672C000083120313EC
:1008D8009F149F1C702C712C722C6D2C1F101E08DD
:1008E800080083120313A800280803197C2C7D2C08
:1008F800912CA31F802C812C912C2009AA0021095E
:10090800AB002209AC002309AD00AA0A0319AB0AFF
:100918000319AC0A0319AD0A992C2308AD00220863
:10092800AC002108AB002008AA00230822042104F7
:100938002004031DA02CA12CAA2C0030A3000030F9
:10094800A2000030A1000030A000302D9630A40095
:100958002408A900BC2C0130A4002408A9070130F0
:100968000310AD0CAC0CAB0CAA0CFF3E031DB42C51
:10097800FE302D05031DC12CC22CAF2CDE2C0130FE
:10098800A4002408A9070130AA0700300318013081
:10099800AB07003003180130AC07003003180130F2
:1009A800AD0701300310AD0CAC0CAB0CAA0CFF3E2C
:1009B800031DD62CFF302D05031DE32CE42CC32C7E
:1009C800F02C0130A9020130A4000310AA0DAB0DD0
:1009D800AC0DAD0DA40BE92CAC1BF32CF42CFA2CAC
:1009E800023029020318F92CFA2CE52C2918FD2CC1
:1009F800FE2C062DFF30AA05FF30AB057F30AC0575
:100A0800FF30AD050310A90C2908A400A501A60113
:100A1800A70118300310A40DA50DA60DA70DFF3EC4
:100A2800031D0E2D2408AA042508AB042608AC04CF
:100A38002708AD0428080319222D232D282DA31FCC
:100A4800262D272D282DAD172D08A3002C08A20030
:100A58002B08A1002A08A00008000310720D730DCE
:100A6800F4007408FA007A08031D3B2D3C2D452D2F
:100A78000030F3000030F2000030F1000030F000E8
:100A8800AA2D7008F4007108F5007208F6007308C2
:100A9800F7001F300310F70CF60CF50CF40CFF3EB2
:100AA800031D4E2D7408F8007808F900F217FF307E
:100AB800F005FF30F105FF30F2050030F305963000
:100AC800FA02FA1F682D692D832D7A08803A973E1D
:100AD80003186F2D702D712D3C2D01300310F30C70
:100AE800F20CF10CF00CFF3E031D722D0130F400E6
:100AF8007408FA07031D812D822D712D9A2D20303F
:100B08007A02031C882D892D952D3C2D0130F40087
:100B18000310F00DF10DF20DF30DF40B8C2D0130D7
:100B2800FA027A08031D992D9A2D8A2D790803193E
:100B38009E2D9F2DAA2DF009F109F209F309F00A5B
:100B48000319F10A0319F20A0319F30A08008312B8
:100B58000313D0003C30B100A030B0009030AF009B
:100B68002E30AE005008CC00CD01CE01CF014F0889
:100B7800A3004E08A2004D08A1004C08A0000130B7
:100B88000A128A1175240A128A1183120313230880
:100B9800B5002208B4002108B3002008B2000A12E8
:100BA8008A1113200A128A11831203133108CB0009
:100BB8003008CA002F08C9002E08C80008008B1783
:100BC8000B17831203138C1DEA2DEB2D082E8316A9
:100BD80003131418F02DF12DF52D831203131308A8
:100BE800880083125508F3005408F2005308F100F6
:100BF8005208F0000A128A1131250A128A11700867
:100C08008312031393008C117C088A007B0E8300E7
:100C1800FE0E7E0E09000A128A1163260A128A1134
:100C28000A128A1195260A128A1100300A128A11AC
:100C380074230A128A1183120313D1005108D600B3
:100C480056080A128A11AB250A128A118312031355
:100C58004B08D5004A08D4004908D3004808D200F8
:100C680056088600192E0A128A110C2883120313BB
:100C7800A800A401A5012008A200A3012208A6003B
:100C88002308A700281C492E4A2E502E2608A40700
:100C98000318A50A2708A50701300310A60DA70DFC
:100CA800FF3E031D512E0310A80C2808031D5D2EBE
:100CB8005E2E462E2508A1002408A00008008316F1
:100CC8000313860183120313860183160317880111
:100CD80089010A128A118B260A128A110A128A11AC
:100CE80078260A128A1108008316031387158712BB
:100CF800851624308312031394008316031394017A
:100D0800831203138C11831603138C1508008312A6
:100D180003131F083F3940389F00831603139F01B0
:080D280008008B170B170800EF
:04400E00D120FF3F7F
:00000001FF
