:020000040000FA
:060000000A128A110C280F
:10000800FE00030EF1000A08F2000A128A111428F1
:100018000A128A110F28F30183010A128A11302863
:100028000B1C17281828282883120313061C1D28C0
:100038001E2822280130F0007008F307861C2528A6
:10004800262828280130F3020B1072088A00710E46
:100058008300FE0E7E0E09000A128A1142200A123F
:100068008A110A128A1150200A128A1173088312FF
:10007800031388003A280A128A110C2883160313DE
:100088008801831203138801033083160313860043
:100098008312031386010800E8308B0003308316AF
:0600A8000313960008009E
:04400E00D120FF3F7F
:00000001FF
