:020000040000FA
:060000000A128A110C280F
:10000800FE00030EF7000A08F8000A128A112D28CC
:100018000A128A110F2883133030FD000030FE00C9
:10002800FE30FF00203084000A128A11EF200A12E5
:100038008A110A128A1120210A128A11FC00F00181
:10004800F101F201F301F401F50183010A128A11A9
:1000580075280B1C3028312845288B1D3428352855
:10006800452883120313061C3A283B283F280130F1
:10007800F6007608F507861C4228432845280130F3
:10008800F5020B10831203130C1F4B284C285A2817
:10009800FC01FC0A1E08F400F2001E0E0F39F300E2
:1000A80072080F39F200831203130C130B1D5D281D
:1000B8005E286E2864308100091C6328642869283A
:1000C80009108914700887006D28091489107108AF
:1000D80087000B1178088A00770E8300FE0E7E0ECB
:1000E80009000A128A11AE200A128A110A128A110C
:1000F80019210A128A110A128A110E210A128A116A
:1001080075088312031388007C080A128A11D32009
:100118000A128A117208203E840083130008FB002B
:100128007B08F1007308203E84000008FB007B0870
:10013800F000740875020318A228A328A7288312C0
:1001480003138717842883120313871384280A123A
:100158008A110C2883160317890183160313880153
:100168008312031388010330831603138600831256
:100178000313860155309F0001308316031788004A
:100188000130831603138500870183120313870147
:100198008316031389018312031389010800FA00E7
:1001A800E8308B00831203130C13831603130C1708
:1001B8009F137A03031DE128E228EA280630F90094
:1001C800F90BE4280000831203139F1408007E082B
:1001D8008A007F0882000A128A11EB200A128A110B
:1001E8008000840A04087D0603190034FF0A0319F5
:1001F800FE0AEF283F3406345B344F3466346D34DE
:100208007D3407347F346F3477347C3439345E344A
:100218007934713484308316031381006430831277
:1002280003138100E8308B000800E8308B000330AE
:0A023800831603139600080001343A
:04400E00D120FF3F7F
:00000001FF
