:020000040000FA
:060000000A128A110C280F
:10000800FE00030EF7000A08F8000A128A112D28CC
:100018000A128A110F2883133030FD000030FE00C9
:10002800F030FF00203084000A128A11E1200A1201
:100038008A110A128A1112210A128A11FC00F0018F
:10004800F101F201F301F401F50183010A128A11A9
:1000580075280B1C3028312845288B1D3428352855
:10006800452883120313061C3A283B283F280130F1
:10007800F6007608F507861C4228432845280130F3
:10008800F5020B10831203130C1F4B284C285A2817
:10009800FC01FC0A1E08F400F2001E0E0F39F300E2
:1000A80072080F39F200831203130C130B1D5D281D
:1000B8005E286E2864308100091C6328642869283A
:1000C80009108914700887006D28091489107108AF
:1000D80087000B1178088A00770E8300FE0E7E0ECB
:1000E80009000A128A11A1200A128A110A128A1119
:1000F8000B210A128A110A128A1100210A128A1186
:1001080075088312031388007C080A128A11C52017
:100118000A128A117208203E840083130008FB002B
:100128007B08F1007308203E84000008FB007B0870
:10013800F00084280A128A110C28831603178901F3
:10014800831603138801831203138801033083166F
:100158000313860083120313860155309F0083160C
:100168000317880101308316031385008701831262
:10017800031387018316031389018312031389016B
:100188000800FA00E8308B00831203130C1383165F
:1001980003130C179F137A03031DD328D428DC28D4
:1001A8000630F900F90BD6280000831203139F14B8
:1001B80008007E088A007F0882000A128A11DD2062
:1001C8000A128A118000840A04087D060319003483
:1001D800FF0A0319FE0AE1283F3406345B344F3422
:1001E80066346D347D3407347F346F3477347C342F
:1001F80039345E34793471348430831603138100C2
:100208006430831203138100E8308B000800E83063
:0E0218008B0003308316031396000800013498
:04400E00D120FF3F7F
:00000001FF
