:020000040000FA
:060000000A128A110C280F
:10000800FE00030EF1000A08F2000A128A111528F0
:100018000A128A110F28F301F40183010A128A11C6
:100028004B280B1C182819282D288B1D1C281D2827
:100038002D2883120313061C222823282728013081
:10004800F0007008F407861C2A282B282D28013078
:10005800F4020B10831203138C1D33283428442810
:1000680083160313141C39283A28402883120313D3
:100078001308F0007008F3007408831293008C11C1
:1000880072088A00710E8300FE0E7E0E09000A12A5
:100098008A1175200A128A110A128A1186200A12F8
:1000A8008A110A128A1162200A128A1174088312AC
:1000B800031388005A280A128A110C28831603137E
:1000C800871587128516243083120313940083162C
:1000D80003139401831203138C11831603138C15D5
:1000E80008008316031789018316031388018312F6
:1000F8000313880103308316031386008312031346
:1001080086010800E8308B0003308316031396003D
:020118000800DD
:04400E00D120FF3F7F
:00000001FF
