:020000040000FA
:060000000A128A110C280F
:10000800FE00030EF1000A08F2000A128A111428F1
:100018000A128A110F28F30183010A128A1134285F
:100028000B1C172818282C288B1D1B281C282C284B
:1000380083120313061C2128222826280130F000E9
:100048007008F307861C29282A282C280130F30277
:100058000B1072088A00710E8300FE0E7E0E0900D6
:100068000A128A1146200A128A110A128A11572086
:100078000A128A1173088312031388003E280A1291
:100088008A110C2883160317890183160313880124
:100098008312031388010330831603138600831227
:1000A800031386010800E8308B000330831603131E
:0400B80096000800A6
:04400E00D120FF3F7F
:00000001FF
