:020000040000FA
:060000000A128A11EA2F2A
:100D8A0080344034203410340834043402340134BA
:100D9A0080344034203410340834043402340134AA
:100DAA007E088A007F0882000A128A11D5260A1252
:100DBA008A118000840A04087D0603190034FF0A98
:100DCA000319FE0AD92E831603178801890183168F
:100DDA000313870183120313870183160313880100
:100DEA0083120313880183160313860183120313E4
:100DFA0086010730831603138500831203138501C6
:100E0A0083160313890183120313890108000A1246
:100E1A008A11E8260A128A1183120313051D162F56
:100E2A00172F202F8230F500DD30F400F40B1B2F32
:100E3A00F50B1B2F202F831203130519252F262F9D
:100E4A00112F0A128A114B270A128A110130F00057
:100E5A000030F1000A128A1190270A128A117108C9
:100E6A00F7007008F60076037704031D3D2F3E2F26
:100E7A00432F0130831203138600112F023083128D
:100E8A0003138600112F0A128A110028F901F801AA
:100E9A00F601F7018312031309140630F200133026
:100EAA00F100AD30F000F00B582FF10B582FF20B78
:100EBA00582F5F2F83120313091089140630F2008A
:100ECA001330F100AD30F000F00B692FF10B692FF0
:100EDA00F20B692F702F831203138910091506303C
:100EEA00F2001330F100AD30F000F00B7A2FF10B65
:100EFA007A2FF20B7A2F812F8312031309117908A3
:100F0A00283E84008313000887007808203E840066
:100F1A0000088800080070037104031D952F962F9E
:100F2A00E92F83120313051C9B2F9C2FC02F82309D
:100F3A00F300DD30F200F20BA02FF30BA02FA52F48
:100F4A00831203130518AA2FAB2FC02F0130F2000A
:100F5A007208F9077908283E84008313000887007D
:100F6A0008307906031DBA2FBB2FC02F0130F000BD
:100F7A000030F100E92F851CC32FC42F962F823031
:100F8A00F300DD30F200F20BC82FF30BC82FCD2F80
:100F9A00831203138518D22FD32F962F0130F20014
:100FAA007208F8077808203E840083130008880036
:100FBA0008307806031DE22FE32FE82F0230F000F5
:100FCA000030F100E92F962F080083133030FD001E
:100FDA000630FE00C530FF00203084000A128A1154
:100FEA00D9260A128A11F601F701F801F9018301DB
:060FFA000A128A110C2FFF
:04400E00F120FF3F5F
:00000001FF
