:020000040000FA
:060000000A128A110E280D
:10000800FE00030EF1000408F2000A08F3000A12C9
:100018008A11602D0A128A111128F90183134B30B5
:1000280084006B300A128A11D4250A128A118301BE
:100038000A128A11A72983120313BC002A30B400BC
:100048003408B700902925303F0603192C282D289D
:1000580039283F08B4003C08840034088313800022
:100068000130B4003408BC079029BD01BE01B901B4
:10007800290884000A128A110C240A128A110A1209
:100088008A1194250A128A11031C4B284C288C28A3
:1000980083120313BD01BE010A30F4000030F500DD
:1000A800831203133E08F7003D08F6000A128A116E
:1000B8000E250A128A11750883120313BE007408EC
:1000C800BD00290884000A128A110C240A128A1118
:1000D800D03EB400FF3003180030B5003408BD0727
:1000E8000318BE0A3508BE070130B4003408A90752
:1000F800290884000A128A110C240A128A110A1289
:100108008A1194250A128A1103188B288C285028E2
:10011800013083120313A907FF30290784000A124C
:100128008A110C240A128A11BF00B400B5013508DF
:10013800003A0319A02890293408003A0319A22983
:10014800643A0319AB280D3A0319AB2890293708EC
:10015800840083130008BA00840A0008BB00023038
:10016800B4003408B707BB1FBA28BB28C42803301B
:10017800B4003408B904BA09BB09BA0A0319BB0A9E
:10018800BF01BF0A3F08B4003407013E84000A12C9
:100198008A110C240A128A11B5000A128A110C2439
:1001A8000A128A11B60036083B02031DDD283508FD
:1001B8003A020318E028E128E228EC280130B400CC
:1001C8003408BF0705303F06031DEB28EC28C62876
:1001D8003D083E040319F128F228FE28390803399E
:1001E8000319F728F828FE28FF30BD070318BE0AB0
:1001F800FF30BE073E08803A803C031D05293D08B4
:100208003F020318082909291529831203133F08F7
:10021800B400B5013408BD023508031CBE03BE0294
:10022800192983120313BD01BE013D083E040319B9
:100238001E291F2936292030B4003C0884003408C0
:10024800831380000130B4003408BC07FF30BD07B9
:100258000318BE0AFF30BE073D083E04031D3529BA
:1002680036291F293908033903193B293C2947290D
:100278002D30B4003C08840034088313800001301A
:10028800B4003408BC073F08B4003408B800872914
:100298000A30A3000030A4003808B4003407013E37
:1002A80084000A128A110C240A128A11F4000A1214
:1002B8008A110C240A128A11F5003B08F7003A0843
:1002C800F6000A128A11BC230A128A1175088312D1
:1002D8000313A6007408A5000A128A1144240A12FE
:1002E8008A11831203132308303EB5003508BF0076
:1002F8003F08B4003C0884003408831380000130B0
:10030800B4003408BC07FF30B4003408B807380A12
:10031800031D8F2990294C290130A907FF3029078F
:1003280084000A128A110C240A128A11B4003408B3
:10033800BF003F08031DA129A22927283C088400E3
:100348008313800108000A128A1139250A128A11BA
:100358000A128A11B1240A128A1100308312031377
:10036800B1000030B0002530AF008030AE000A1276
:100378008A1149230A128A110A128A11C8250A12F7
:100388008A1183120313A00100300A128A118024F3
:100398000A128A11203083120313A0008030A100B2
:1003A8000A128A11E1240A128A1183120313071010
:1003B80001309300831603131418E329E429EA296A
:1003C800831203131308C0004008D60003308312B9
:1003D8000313C1009730C000C00BF029C10BF029EE
:1003E8008312031307148710013093008316031335
:1003F8001418FF29002A062A831203131308C000C1
:100408004008D500033083120313C1009730C000A1
:10041800C00B0C2AC10B0C2A831203138714071173
:10042800013093008316031314181B2A1C2A222A4E
:10043800831203131308C0004008D400033083124A
:100448000313C1009730C000C00B282AC10B282A0B
:10045800831203130715D201D301D6010A30A30072
:100468000030A4005308A6005208A5000A128A11F9
:1004780044240A128A11831203132308C000560861
:100488004F3E84004008831380000A30F400003097
:10049800F5005308F7005208F6000A128A11BC2327
:1004A8000A128A11750883120313D3007408D20044
:1004B8000130C0004008D60703305602031C652AE5
:1004C800662A322A0B30C0004008A9005108C10032
:1004D800C2014108AA004208AB005008C300C40189
:1004E8004308AC004408AD004F08C500C6014508E4
:1004F800AE004608AF005508C700C8014708B0005D
:100508004808B1005408C900CA014908B2004A089D
:10051800B30057300A128A111F200A128A11831257
:100528000313A001A00A00300A128A1180240A12BB
:100538008A11573083120313A0000030A1000A1259
:100548008A11E1240A128A11D9290A128A110E285D
:1005580083120313A901A31FB22AB32AC02AA00930
:10056800A109A209A309A00A0319A10A0319A20A49
:100578000319A30AA901A90AA71FC32AC42AD32AAF
:10058800A409A509A609A709A40A0319A50A031914
:10059800A60A0319A70A0130F4007408A906003056
:1005A800AD000030AC000030AB000030AA002308DA
:1005B8002204210420040319E22AE32A302BA8018B
:1005C800A80AF32A0130F4000310A00DA10DA20D12
:1005D800A30DF40BE82A0130F4007408A807A31F40
:1005E800F62AF72AE62A0130F4000310AA0DAB0D0B
:1005F800AC0DAD0DF40BF92A23082702031D0E2BB1
:1006080022082602031D0E2B21082502031D0E2B8E
:1006180020082402031C112B122B212B2008A402D2
:100628002108031C210FA5022208031C220FA60281
:100638002308031C230FA7022A1401300310A30C5C
:10064800A20CA10CA00CFF3E031D222B0130A80216
:10065800031D2F2B302BF72A29080319342B352B90
:10066800402BAA09AB09AC09AD09AA0A0319AB0AC0
:100678000319AC0A0319AD0A2D08A3002C08A2001F
:100688002B08A1002A08A0000800831603131813DA
:10069800981618121811831603178711831203135B
:1006A800981718162E08B2002F08B3003008B400A7
:1006B8003108B50006300310B20DB30DB40DB50DF9
:1006C800FF3E031D5F2B3508A3003408A200330842
:1006D800A1003208A0002E08B6002F08B700300885
:1006E800B8003108B90006300310B60DB70DB80DC3
:1006F800B90DFF3E031D782B0030BA001230BB0045
:100708007A30BC000030BD003608BA023708031C36
:10071800370F8F2B902BBB023808031C380F952BF3
:10072800962BBC023908031C390F9B2B9C2BBD024E
:100738003D08A7003C08A6003B08A5003A08A4000D
:100748000A128A11AC220A128A118312031323088F
:10075800F8002208F7002108F6002008F5007508BF
:100768008316031399008B170B178C160C160800A9
:1007780083120313A001A101740875040319C52B82
:10078800C62BFD2BA201A20AD42B01300310F40DB5
:10079800F50DFF3E031DCA2B0130F8007808A207AB
:1007A800F51FD72BD82BC92B01300310A00DA10D95
:1007B800FF3E031DD92B75087702031DE52B74082E
:1007C8007602031CE82BE92BF02B7408F602750857
:1007D800031CF703F702201401300310F50CF40C86
:1007E800FF3E031DF12B0130A202031DFC2BFD2B44
:1007F800D82B2108F5002008F4000800FF1B0C2C5A
:1008080083137F1883170008840A0319FF0A080056
:1008180004308A000408840A820700340134003452
:100828000A34003464340034E83403341034273490
:10083800253469342E3425346934253469345634E2
:100848002034253433346934433420342534333464
:10085800693454340D340A34003420345334313478
:100868003A342034203420342034533432343A3467
:100878002034203420342034533433343A34003490
:10088800831203132308240403194B2C4C2C7B2CB0
:10089800A801A80A5A2C01300310A30DA40DFF3E8D
:1008A800031D502C0130A7002708A807A41F5D2CA2
:1008B8005E2C4F2C24082602031D642C23082502D5
:1008C800031C672C682C6E2C2308A5022408031C23
:1008D800A603A60201300310A40CA30CFF3E031DBF
:1008E8006F2C0130A802031D7A2C7B2C5E2C260865
:1008F800A4002508A300080083120313A5000230F2
:1009080020020318882C892CB02C10302502031CD7
:100918008E2C8F2C902CB02C20030319942C952C02
:100928009B2C80302504A3000030A400A02CC030EC
:100938002504A3000030A40023080A128A11A62562
:100948000A128A110D3083120313A200FB30A10092
:10095800A10BAC2CA20BAC2C08008312031388014A
:10096800831603138801273083120313A100F43080
:10097800A000A00BBD2CA10BBD2C000032300A1228
:100988008A11A6250A128A1138300A128A11A62558
:100998000A128A110C300A128A11A6250A128A1123
:1009A80001300A128A11A6250A128A1106300A1283
:1009B8008A11A6250A128A11080083120313A301BB
:1009C800FC2C23082007840021080318210AFF00B3
:1009D8000A128A1102240A128A110A128A1181251E
:1009E8000A128A11013083120313A2002208A307F6
:1009F80023082007840021080318210AFF000A128F
:100A08008A1102240A128A11003A031D0C2D0D2D99
:100A1800E52C080083120313A001A101741C152DF5
:100A2800162D1E2D760883120313A0070318A10A9A
:100A38007708A10701300310F60DF70DFF3E031DDF
:100A48001F2D01300310F50CF40CFF3E031D262D5D
:100A580074087504031D312D322D122D83120313D2
:100A68002108F5002008F400080083160313870105
:100A78000630831203138700831603178801890140
:100A88008316031385018312031385018316031349
:100A980086018312031386018316031388018312C8
:100AA8000313880183160313890183120313890131
:100AB8008316031396010800831203130C1E652D79
:100AC800662D742D7908573E840083130008990019
:100AD80010307906031D712D722D782DF901782DAE
:100AE8000130F0007008F90773088A007208840062
:100AF800710E8300FE0E7E0E0900F8000D30F7001F
:100B0800FB30F600F60B862DF70B862D8B2DF401A6
:100B1800F40A78080A128A11B8250A128A110800FC
:100B2800F500F4013A30750203189B2D9C2DA42D75
:100B380030307502031CA12DA22DA42DF401F40A56
:100B4800740C0800F8000D30F700FB30F600F60BC7
:100B5800AB2DF70BAB2DB02DF40178080A128A11D2
:100B6800B8250A128A110800F500831203138801B8
:100B7800080875048800740C031C8612031886166E
:100B88000613861786130800831603138711871226
:100B98002030831203139400831603139401080072
:100BA80064008001840A0406031900340406D52D64
:04400E00D120FF3F7F
:00000001FF
