:020000040000FA
:060000000A128A110E280D
:10000800FE00030EF1000408F2000A08F3000A12C9
:100018008A156B2B0A128A111128F701F801F901C8
:1000280083120313E601E701E8018313A03084007B
:10003800BB300A128A15EE220A128A1183010A12AB
:100048008A11872B831203132A088039AF002F08DF
:10005800B4002A08AF002F07B0003008BA00A91F63
:100068003628372838283A143A0803193C283D28F6
:100078004C283A0A031D412842284A280030AA0081
:100088000030A9000030A8000030A700A9175428A4
:100098000030AA000030A9000030A8000030A700F6
:1000A8002E088039AF002F08B4062E08AF002F079E
:1000B800B0003008B500AD1F6228632864283514E5
:1000C80035080319682869287828350A031D6D281A
:1000D8006E2876280030AE000030AD000030AC004D
:1000E8000030AB00AD1780280030AE000030AD0006
:1000F8000030AC000030AB0035080319842885288F
:100108008A283A08031D89288A2893280030AA00DB
:100118000030A9000030A8000030A700862B27086F
:10012800AF002F08F4002D080A128A15B3230A120B
:100138008A11750883120313C0007408BF003F08B2
:10014800AF00B001B101B2013208B9003108B800FE
:100158003008B7002F08B6004008AF00B001B10161
:10016800B2013208BE003108BD003008BC002F08BB
:10017800BB002808AF002F08F4002C080A128A15C3
:10018800B3230A128A11750883120313C000740876
:10019800BF003F08AF00B001B101B2012F08B60798
:1001A800300803110318013E0319DB28B70731088B
:1001B80003110318013E0319E228B8073208031196
:1001C8000318013E0319E928B9074008AF00B00138
:1001D800B101B2012F08BB07300803110318013E13
:1001E8000319F728BC07310803110318013E031946
:1001F800FE28BD07320803110318013E031905291B
:10020800BE072908AF002F08F4002B080A128A1528
:10021800B3230A128A11750883120313C0007408E5
:10022800BF003F08AF00B001B101B2012F08B60707
:10023800300803110318013E03192329B7073108B1
:1002480003110318013E03192A29B80732080311BC
:100258000318013E03193129B9074008AF00B0015E
:10026800B101B2012F08BB07300803110318013E82
:1002780003193F29BC07310803110318013E03196C
:100288004629BD07320803110318013E03194D29F9
:10029800BE070830AF000310B60DB70DB80DB90D85
:1002A800AF0B4F292808AF002F08F4002B080A12BB
:1002B8008A15B3230A128A11750883120313C00022
:1002C8007408BF003F08AF004008B000B101B20198
:1002D8002F08B607300803110318013E03197529C2
:1002E800B707310803110318013E03197C29B80721
:1002F800320803110318013E03198329B907270897
:10030800AF002F08F4002C080A128A15B3230A122A
:100318008A11750883120313C0007408BF003F08D0
:10032800AF004008B000B101B2012F08B60730088D
:1003380003110318013E0319A229B7073108031155
:100348000318013E0319A929B80732080311031835
:10035800013E0319B029B9070830AF000310B60DE4
:10036800B70DB80DB90DAF0BB2292708AF002F088C
:10037800F4002B080A128A15B3230A128A11750889
:1003880083120313C0007408BF003F08AF00400881
:10039800B000B101B2012F08B607300803110318E5
:1003A800013E0319D829B707310803110318013E84
:1003B8000319DF29B807320803110318013E03198E
:1003C800E629B9072808AF002F08F4002D080A12FB
:1003D8008A15B3230A128A11750883120313C00001
:1003E8007408BF003F08AF004008B000B101B20177
:1003F8002F08BB07300803110318013E0319052A0B
:10040800BC07310803110318013E03190C2ABD0764
:10041800320803110318013E0319132ABE072908DD
:10042800AF002F08F4002C080A128A15B3230A1209
:100438008A11750883120313C0007408BF003F08AF
:10044800AF004008B000B101B2012F08BB07300867
:1004580003110318013E0319322ABC07310803119E
:100468000318013E0319392ABD073208031103187E
:10047800013E0319402ABE072908AF002F08F400DF
:100488002D080A128A15B3230A128A1175088312D5
:100498000313C0007408BF003F08AF004008B00055
:1004A800B101B20108300310AF0DB00DB10DB20D9E
:1004B800FF3E031D572A2F08BB07300803110318F6
:1004C800013E0319682ABC07310803110318013ECD
:1004D80003196F2ABD07320803110318013E0319D7
:1004E800762ABE073608AF003708B0003808B100D2
:1004F8003908B20018300310B20CB10CB00CAF0CB4
:10050800FF3E031D7F2A2F08BB073008031103187D
:10051800013E0319902ABC07310803110318013E54
:100528000319972ABD07320803110318013E03195E
:100538009E2ABE070830AF000310B60DB70DB80DE0
:10054800B90DAF0BA02A3A083507AF00B001B00DBE
:100558002F08823EBF0030080318013EFF3EC0004E
:10056800D22A0130AF000310BB0DBC0DBD0DBE0D6E
:10057800AF0BB72AB91FC12AC22AC32A3B140130BC
:10058800AF000310B60DB70DB80DB90DAF0BC52AE6
:10059800FF30BF070318C00AFF30C007BD1FD52AA8
:1005A800D62AB52AB501B91FDA2ADB2AF72AFF307D
:1005B8003605AF00FF303705B000FF303805B10011
:1005C8007F303905B2003208310430042F04031992
:1005D800EE2AEF2AF22AB501B50AF72A3B1CF52ABA
:1005E800F62AF72AEF2A35080319FB2AFC2A2D2BAD
:1005F8000130BB07003003180130BC070030031876
:100608000130BD07003003180130BE073E1C0D2B1A
:100618000E2B2D2B3B08AF003C08B0003D08B10065
:100628003E08B2000130B300320DB20CB10CB00C70
:10063800AF0CB30B182B3208BE003108BD003008D0
:10064800BC002F08BB000130BF070318C00A0030E8
:10065800C0074008803AFF0080307F02031D362B18
:10066800FF303F02031C392B3A2B452B7F30831276
:100678000313BE008030BD000030BC000030BB005A
:100688007A2B831203134008803AFF0080307F02E0
:10069800031D502B01303F020318532B542B602BA2
:1006A800003083120313BE000030BD000030BC00D0
:1006B8000030BB00B4017A2B831203133F08AF004C
:1006C8002F08BA00FF30BB05FF30BC057F30BD05E1
:1006D8000030BE053A1C712B722B732BBD173A08DC
:1006E800AF0003102F0CB0003008BE003408AF0074
:1006F8002F08BE043E08AA003D08A9003C08A8002F
:100708003B08A70008000A128A154B230A128A110F
:100718000A128A1509240A128A1100308312031357
:10072800B1000030B0002530AF008030AE000A12B2
:100738008A15EC240A128A110A128A15F6220A125C
:100748008A1183120313A20100300A128A15392470
:100758000A128A11203083120313A2008030A300EA
:100768000A128A15DC230A128A118316031307104A
:1007780083120313071083160313871083120313BE
:1007880087148316031307118312031307158312A3
:100798000313071001309300831603131418D52B85
:1007A800D62B132C83120313130883160313BB00D1
:1007B800BC01BD01BE013E0883120313A3008316CA
:1007C80003133D0883120313A200831603133C0886
:1007D80083120313A100831603133B088312031328
:1007E800A00000300A128A1141270A128A118312C6
:1007F8000313230883160313A30083120313220889
:1008080083160313A200831203132108831603130C
:10081800A10083120313200883160313A0000330DA
:1008280083160313BC009730BB00BB0B192CBC0B01
:10083800192C8312031307148710013093008316B1
:1008480003131418282C292C332C83120313130890
:1008580083160313BB003B0883120313E70003301E
:1008680083160313BC009730BB00BB0B392CBC0BA1
:10087800392C831203138714071101309300831650
:1008880003131418482C492C532C831203131308F0
:1008980083160313BB003B0883120313E6000330DF
:1008A80083160313BC009730BB00BB0B592CBC0B41
:1008B800592C831203130715831603132308831275
:1008C8000313AE0083160313220883120313AD002B
:1008D80083160313210883120313AC008316031332
:1008E800200883120313AB004330AA00FA30A90092
:1008F8000030A8000030A7000A128A1126200A1228
:100908008A11831203132A08C8002908C700280877
:10091800C6002708C5004330C4007F30C30000303C
:10092800C2000030C1000A128A1164250A128A1115
:10093800831203134408DE004308DD004208DC008C
:100948004108DB000A128A155F250A128A118312F0
:1009580003135C08F8005B08F700E8010A30A700F9
:100968000030A8007808AA007708A9000A128A159A
:100978006A240A128A1183120313270883160313A1
:10098800BB00831203136808A43E84008316031374
:100998003B08831380000A3083120313A000003041
:1009A800A1007808A3007708A2000A128A15A624D5
:1009B8000A128A11831203132108F8002008F7008D
:1009C800013083160313BB003B0883120313E807A7
:1009D80003306802031CF12CF22CB22C0B30831666
:1009E8000313BB003B0883120313AB0083160313E6
:1009F8002608BC00BD013C0883120313AC00831613
:100A080003133D0883120313AD008316031325084F
:100A1800BE00BF013E0883120313AE008316031302
:100A28003F0883120313AF00831603132408C00082
:100A3800C101400883120313B00083160313410851
:100A480083120313B100670883160313C200C3019E
:100A5800420883120313B200831603134308831258
:100A68000313B300660883160313C400C5014408C2
:100A780083120313B4008316031345088312031368
:100A8800B500A7300A128A1578260A128A1183122D
:100A98000313A201A20A00300A128A1539240A1285
:100AA8008A11A73083120313A2000030A3000A1290
:100AB8008A15DC230A128A11CB2B0A128A110E28F6
:100AC8008312031348088039C9004908D20048082E
:100AD800C9004907CA004A08D900C71F742D752DD7
:100AE800762D5914590803197A2D7B2D8B2D590A07
:100AF800031D7F2D802D882D0030C8000030C700D1
:100B08000030C6000030C500C717C801932D00305B
:100B1800C8000030C7000030C6000030C5004408D7
:100B28008039C9004908D2064408C9004907CA00E3
:100B38004A08DA00C31FA12DA22DA32D5A145A0862
:100B48000319A72DA82DB82D5A0A031DAC2DAD2DBC
:100B5800B52D0030C4000030C3000030C2000030A2
:100B6800C100C317C401C02D0030C4000030C30049
:100B78000030C2000030C10044084304420441046C
:100B8800031DC72DC82DE12D0030C8000030C70057
:100B98000030C6000030C5008030C7047F30C8046C
:100BA8005208C9004908C8044808C4004708C300D7
:100BB8004608C2004508C100402F5908031DE52D0D
:100BC800E62DEF2D0030C4000030C3000030C20015
:100BD8000030C100402F5908C900CA014A08CC009A
:100BE8005A084902CB00031CCC034B087F3ED300B4
:100BF8004C080318013E003ED4004808D1004708BD
:100C0800D0004608CF004508CE000030C8000030AC
:100C1800C7000030C6000030C5000030D8000030E2
:100C2800D7000030D6000030D500DA01652E5A080A
:100C380003191F2E202E402E0130C9000310CE0D9F
:100C4800CF0DD00DD10DC90B222E0130C9000310D4
:100C5800C50DC60DC70DC80DC90B2B2ED81F352EB7
:100C6800362E372E45140130C9000310D50DD60D88
:100C7800D70DD80DC90B392E44085102031D4E2E2D
:100C880043085002031D4E2E42084F02031D4E2EEC
:100C980041084E02031C512E522E612E581741084E
:100CA800CE024208031C420FCF024308031C430F25
:100CB800D0024408031C440FD1020130C90049087E
:100CC800DA071A305A02031C6A2E6B2E1B2E5108A3
:100CD80050044F044E040319722E732E922E55148D
:100CE800922E0130C9000310C50DC60DC70DC80DE1
:100CF800C90B772ED81F812E822E832E45140130E2
:100D0800C9000310D50DD60DD70DD80DC90B852EEA
:100D1800FF30D3070318D40AFF30D407C71F952E16
:100D2800962E752EDA01D81F9A2E9B2EB72EFF30DD
:100D38005505C900FF305605CA00FF305705CB00DE
:100D48007F305805CC004C084B044A044904031969
:100D5800AE2EAF2EB22EDA01DA0AB72E451CB52E0A
:100D6800B62EB72EAF2E5A080319BB2EBC2EED2E69
:100D78000130C507003003180130C60700300318DA
:100D88000130C707003003180130C807481CCD2EB2
:100D9800CE2EED2E4508C9004608CA004708CB00EC
:100DA8004808CC000130CD004C0DCC0CCB0CCA0C43
:100DB800C90CCD0BD82E4C08C8004B08C7004A08F0
:100DC800C6004908C5000130D3070318D40A00300B
:100DD800D4075408803AFF0080307F02031DF62EA6
:100DE800FF305302031CF92EFA2E082FFF3083120E
:100DF8000313D3000030D4000030C8000030C7000F
:100E08000030C6000030C500831203135408803A2E
:100E1800FF0080307F02031D132F01305302031897
:100E2800162F172F242F83120313D301D401003058
:100E3800C8000030C7000030C6000030C500D2012D
:100E4800831203135308C9004908D900591C2D2FD0
:100E58002E2F302FC717342F7F30C9004908C705F8
:100E68005908C9000310490CCA004A08C8005208AA
:100E7800C9004908C804D82D080083120313A80024
:100E880028080319482F492F5D2FA31F4C2F4D2FDA
:100E98005D2F2009AA002109AB002209AC00230913
:100EA800AD00AA0A0319AB0A0319AC0A0319AD0A63
:100EB800652F2308AD002208AC002108AB002008EC
:100EC800AA002308220421042004031D6C2F6D2F7F
:100ED800762F0030A3000030A2000030A1000030BF
:100EE800A000FC2F9630A4002408A900882F013008
:100EF800A4002408A90701300310AD0CAC0CAB0CFE
:100F0800AA0CFF3E031D802FFE302D05031D8D2FDB
:100F18008E2F7B2FAA2F0130A4002408A9070130A7
:100F2800AA07003003180130AB070030031801305E
:100F3800AC07003003180130AD0701300310AD0CC9
:100F4800AC0CAB0CAA0CFF3E031DA22FFF302D05E5
:100F5800031DAF2FB02F8F2FBC2F0130A9020130F6
:100F6800A4000310AA0DAB0DAC0DAD0DA40BB52F4D
:100F7800AC1BBF2FC02FC62F023029020318C52F64
:100F8800C62FB12F2918C92FCA2FD22FFF30AA0573
:100F9800FF30AB057F30AC05FF30AD050310A90C61
:100FA8002908A400A501A601A70118300310A40D63
:100FB800A50DA60DA70DFF3E031DDA2F2408AA04D0
:100FC8002508AB042608AC042708AD042808031933
:100FD800EE2FEF2FF42FA31FF22FF32FF42FAD17BF
:100FE8002D08A3002C08A2002B08A1002A08A000A5
:020FF8000800EF
:10100000FF1B0A2883137F1883170008840A03191B
:10101000FF0A080008308A000408840A82070034A6
:10102000013400340A34003464340034E8340334C6
:1010300010342734253469342E342534693425346A
:1010400069345634203425343334693443342034FD
:1010500025343334693454340D340A3400342034A4
:10106000533431343A34203420342034203453344F
:1010700032343A342034203420342034533433345E
:041080003A340034CA
:1015DC0064008001840A0406031900340406EF2A0F
:1015EC008316031387118712203083120313940080
:1015FC008316031394010800F5008312031388016A
:10160C00080875048800740C031C861203188616CF
:10161C000613861786130800F500F4013A3075029C
:10162C000318192B1A2B222B30307502031C1F2B7D
:10163C00202B222BF401F40A740C0800F6000D3058
:10164C0083120313A100FB30A000A00B2B2BA10BCA
:10165C002B2BF40176080A128A1502230A128A151A
:10166C000800F6000D3083120313A100FB30A0001C
:10167C00A00B3E2BA10B3E2BF401F40A76080A12A8
:10168C008A1502230A128A1508008316031788018B
:10169C0089018316031385018312031385018316B5
:1016AC000313860183120313860183160313880127
:1016BC008312031388018316031389018312031306
:1016CC0089018316031396010800831203130C1E61
:1016DC00702B712B832B7908A73E84008313000891
:1016EC00990010307906031D7C2B7D2B7F2BF90183
:1016FC00832B0130F0007008F90773088A00720818
:10170C008400710E8300FE0E7E0E0900F401F501BB
:10171C0083120313201C932B942B9A2B2208F4076F
:10172C000318F50A2308F50701300310A20DA30DC9
:10173C00FF3E031D9B2B01300310A10CA00CFF3EA0
:10174C00031DA22B20082104031DAD2BAE2B8E2BC9
:10175C007508A1007408A000080083120313A600EA
:10176C00A201A3017408A000A1012008A400210873
:10177C00A500261CC22BC32BC92B2408A2070318B7
:10178C00A30A2508A30701300310A40DA50DFF3EE5
:10179C00031DCA2B0310A60C2608031DD62BD72B12
:1017AC00BF2B2308F5002208F40008008312031352
:1017BC00A501F72B25082207840023080318230A08
:1017CC00FF000A128A1500200A128A150A128A15BD
:1017DC0037230A128A15013083120313A40024083C
:1017EC00A50725082207840023080318230AFF00F5
:1017FC000A128A1500200A128A15003A031D072CBA
:10180C00082CE02B080083120313880183160313A2
:10181C008801273083120313A300F430A200A20B1B
:10182C00152CA30B152C000032300A128A15242318
:10183C000A128A1538300A128A1524230A128A15BC
:10184C000C300A128A1524230A128A1501300A1246
:10185C008A1524230A128A1506300A128A152423A3
:10186C000A128A15080083120313A7000230220201
:10187C000318412C422C692C10302702031C472CD6
:10188C00482C492C692C220303194D2C4E2C542C1A
:10189C0080302704A5000030A600592CC030270446
:1018AC00A5000030A60025080A128A1524230A1266
:1018BC008A150D3083120313A400FB30A300A30B75
:1018CC00652CA40B652C080083120313270828042D
:1018DC000319712C722CA12CF601F60A802C013004
:1018EC000310A70DA80DFF3E031D762C0130F5004B
:1018FC007508F607A81F832C842C752C28082A023F
:10190C00031D8A2C27082902031C8D2C8E2C942C49
:10191C002708A9022808031CAA03AA0201300310F5
:10192C00A80CA70CFF3E031D952C0130F602031DDD
:10193C00A02CA12C842C2A08A8002908A700080098
:10194C0083120313A501A601200821040319AF2C4F
:10195C00B02CE72CA401A40ABE2C01300310A00D5E
:10196C00A10DFF3E031DB42C0130F4007408A40734
:10197C00A11FC12CC22CB32C01300310A50DA60D38
:10198C00FF3E031DC32C21082302031DCF2C20086E
:10199C002202031CD22CD32CDA2C2008A202210800
:1019AC00031CA303A302251401300310A10CA00CEB
:1019BC00FF3E031DDB2C0130A402031DE62CE72C9B
:1019CC00C22C2608A1002508A000080083160313CA
:1019DC0018139816181218118316031787118312EF
:1019EC000313981718162E08B2002F08B3003008EE
:1019FC00B4003108B50006300310B20DB30DB40DB0
:101A0C00B50DFF3E031D022D3508A3003408A200BE
:101A1C003308A1003208A0002E08B6002F08B7002A
:101A2C003008B8003108B90006300310B60DB70DF8
:101A3C00B80DB90DFF3E031D1B2D0030BA0012303E
:101A4C00BB007A30BC000030BD003608BA02370843
:101A5C00031C370F322D332DBB023808031C380FF3
:101A6C00382D392DBC023908031C390F3E2D3F2D62
:101A7C00BD023D08A7003C08A6003B08A5003A089B
:101A8C00A4000A128A15DB250A128A158312031385
:101A9C002308C1002208C0002108BF002008BE0096
:101AAC003E088316031399008B170B178C160C1614
:101ABC0008000310831203135D0D5E0DDF005F0839
:101ACC00E5006508031D6B2D6C2D752D0030DE00B7
:101ADC000030DD000030DC000030DB00DA2D5B086C
:101AEC00DF005C08E0005D08E1005E08E2001F30EA
:101AFC000310E20CE10CE00CDF0CFF3E031D7E2D0D
:101B0C005F08E3006308E400DD17FF30DB05FF30FE
:101B1C00DC05FF30DD050030DE059630E502E51F03
:101B2C00982D992DB32D6508803A973E03189F2D5B
:101B3C00A02DA12D6C2D01300310DE0CDD0CDC0C66
:101B4C00DB0CFF3E031DA22D0130DF005F08E50713
:101B5C00031DB12DB22DA12DCA2D20306502031C01
:101B6C00B82DB92DC52D6C2D0130DF000310DB0D08
:101B7C00DC0DDD0DDE0DDF0BBC2D0130E502650843
:101B8C00031DC92DCA2DBA2D64080319CE2DCF2DD6
:101B9C00DA2DDB09DC09DD09DE09DB0A0319DC0AB5
:101BAC000319DD0A0319DE0A080083120313A901C5
:101BBC00A31FE12DE22DEF2DA009A109A209A30974
:101BCC00A00A0319A10A0319A20A0319A30AA9015D
:101BDC00A90AA71FF22DF32D022EA409A509A60907
:101BEC00A709A40A0319A50A0319A60A0319A70A27
:101BFC000130F4007408A9060030AD000030AC00D0
:101C0C000030AB000030AA00230822042104200479
:101C1C000319112E122E5F2EA801A80A222E0130B4
:101C2C00F4000310A00DA10DA20DA30DF40B172EA3
:101C3C000130F4007408A807A31F252E262E152E9C
:101C4C000130F4000310AA0DAB0DAC0DAD0DF40B6F
:101C5C00282E23082702031D3D2E22082602031DD1
:101C6C003D2E21082502031D3D2E20082402031CB5
:101C7C00402E412E502E2008A4022108031C210FB7
:101C8C00A5022208031C220FA6022308031C230F03
:101C9C00A7022A1401300310A30CA20CA10CA00C57
:101CAC00FF3E031D512E0130A802031D5E2E5F2E38
:101CBC00262E29080319632E642E6F2EAA09AB0950
:101CCC00AC09AD09AA0A0319AB0A0319AC0A03192A
:101CDC00AD0A2D08A3002C08A2002B08A1002A088D
:101CEC00A000080083120313BE002C30B600360887
:101CFC00B900E92F253041060319852E862E922E28
:101D0C004108B6003E088400360883138000013079
:101D1C00B6003608BE07E92FBF01C001BB012B0876
:101D2C0084000A128A150A200A128A150A128A15C8
:101D3C0012230A128A15031CA42EA52EE52E83123B
:101D4C000313BF01C0010A3083120313A00000303B
:101D5C00A1004008A3003F08A2000A128A158C2398
:101D6C000A128A15831203132108C0002008BF0031
:101D7C002B0884000A128A150A200A128A15D03EF2
:101D8C00B600FF3003180030B7003608BF07031841
:101D9C00C00A3708C0070130B6003608AB072B085D
:101DAC0084000A128A150A200A128A150A128A1548
:101DBC0012230A128A150318E42EE52EA92E0130DF
:101DCC0083120313AB07FF302B0784000A128A150A
:101DDC000A200A128A15C100B600B7013708003A6A
:101DEC000319F92EE92F3608003A0319FB2F643A30
:101DFC000319042F0D3A0319042FE92F3908840015
:101E0C0083130008BC00840A0008BD000230B60031
:101E1C003608B907BD1F132F142F1D2F0330B60022
:101E2C003608BB04BC09BD09BC0A0319BD0AC101B3
:101E3C00C10A4108B6003607013E84000A128A1511
:101E4C000A200A128A15B7000A128A150A200A12E9
:101E5C008A15B80038083D02031D362F37083C029E
:101E6C000318392F3A2F3B2F452F0130B600360877
:101E7C00C10705304106031D442F452F1F2F3F0876
:101E8C00400403194A2F4B2F572F3B0803390319D2
:101E9C00502F512F572FFF30BF070318C00AFF30A8
:101EAC00C0074008803A803C031D5E2F3F0841026A
:101EBC000318612F622F6E2F831203134108B60093
:101ECC00B7013608BF023708031CC003C002722FCB
:101EDC0083120313BF01C0013F0840040319772F7D
:101EEC00782F8F2F2030B6003E08840036088313DD
:101EFC0080000130B6003608BE07FF30BF0703185C
:101F0C00C00AFF30C0073F084004031D8E2F8F2FDF
:101F1C00782F3B0803390319942F952FA02F2D30C0
:101F2C00B6003E0884003608831380000130B600EA
:101F3C003608BE074108B6003608BA00E02F0A3052
:101F4C00A7000030A8003A08B6003607013E84000E
:101F5C000A128A150A200A128A15A0000A128A157A
:101F6C000A200A128A15A1003D08A3003C08A20011
:101F7C000A128A15A6240A128A1583120313210841
:101F8C00AA002008A9000A128A156A240A128A15C6
:101F9C00831203132708303EB7003708C1004108ED
:101FAC00B6003E0884003608831380000130B6006A
:101FBC003608BE07FF30B6003608BA073A0A031DCA
:101FCC00E82FE92FA52F0130AB07FF302B0784003A
:101FDC000A128A150A200A128A15B6003608C100A0
:101FEC004108031DFA2FFB2F802E3E08840083131B
:041FFC008001080058
:04400E00D120FF3F7F
:00000001FF
