:020000040000FA
:060000000A128A110C280F
:10000800FE00030EF0000A08F1000A128A11CA2F36
:100018000A128A110F28FA01FB0183010A128A11B8
:10002800722C8312031329088039AE002E08B300FE
:100038002908AE002E07AF002F08B900A81F2528F1
:10004800262827283914390803192B282C283B2857
:10005800390A031D3028312839280030A90000301A
:10006800A8000030A7000030A600A81743280030D9
:10007800A9000030A8000030A7000030A6002D0815
:100088008039AE002E08B3062D08AE002E07AF004B
:100098002F08B400AC1F51285228532834143408B0
:1000A8000319572858286728340A031D5C285D2837
:1000B80065280030AD000030AC000030AB000030E7
:1000C800AA00AC176F280030AD000030AC0000303B
:1000D800AB000030AA003408031973287428792863
:1000E8003908031D7828792882280030A9000030B3
:1000F800A8000030A7000030A600752B2608AE0027
:100108002E08F2002C080A128A1181270A128A1175
:10011800730883120313BF007208BE003E08AE00C6
:10012800AF01B001B1013108B8003008B7002F089D
:10013800B6002E08B5003F08AE00AF01B001B1010E
:100148003108BD003008BC002F08BB002E08BA00DB
:100158002708AE002E08F2002B080A128A11812700
:100168000A128A11730883120313BF007208BE00B3
:100178003E08AE00AF01B001B1012E08B5072F0847
:1001880003110318013E0319CA28B60730080311E2
:100198000318013E0319D128B707310803110318C2
:1001A800013E0319D828B8073F08AE00AF01B001D7
:1001B800B1012E08BA072F0803110318013E0319CD
:1001C800E628BB07300803110318013E0319ED2880
:1001D800BC07310803110318013E0319F428BD07B1
:1001E8002808AE002E08F2002A080A128A11812770
:1001F8000A128A11730883120313BF007208BE0023
:100208003E08AE00AF01B001B1012E08B5072F08B6
:1002180003110318013E03191229B6073008031108
:100228000318013E03191929B707310803110318E8
:10023800013E03192029B8073F08AE00AF01B001FD
:10024800B1012E08BA072F0803110318013E03193C
:100258002E29BB07300803110318013E031935295D
:10026800BC07310803110318013E03193C29BD07D7
:100278000830AE000310B50DB60DB70DB80DAE0BB6
:100288003E292708AE002E08F2002A080A128A1111
:1002980081270A128A11730883120313BF00720898
:1002A800BE003E08AE003F08AF00B001B1012E0805
:1002B800B5072F0803110318013E03196429B6076F
:1002C800300803110318013E03196B29B7073108D9
:1002D80003110318013E03197229B8072608AE0056
:1002E8002E08F2002B080A128A1181270A128A1195
:1002F800730883120313BF007208BE003E08AE00E5
:100308003F08AF00B001B1012E08B5072F0803114F
:100318000318013E03199129B60730080311031881
:10032800013E03199829B707310803110318013E44
:1003380003199F29B8070830AE000310B50DB60D94
:10034800B70DB80DAE0BA1292608AE002E08F20095
:100358002A080A128A1181270A128A11730883123D
:100368000313BF007208BE003E08AE003F08AF008E
:10037800B001B1012E08B5072F0803110318013E7B
:100388000319C729B607300803110318013E0319DA
:10039800CE29B707310803110318013E0319D529DF
:1003A800B8072708AE002E08F2002C080A128A1196
:1003B80081270A128A11730883120313BF00720877
:1003C800BE003E08AE003F08AF00B001B1012E08E4
:1003D800BA072F0803110318013E0319F429BB07B4
:1003E800300803110318013E0319FB29BC07310823
:1003F80003110318013E0319022ABD072808AE009D
:100408002E08F2002B080A128A1181270A128A1173
:10041800730883120313BF007208BE003E08AE00C3
:100428003F08AF00B001B1012E08BA072F08031129
:100438000318013E0319212ABB07300803110318CA
:10044800013E0319282ABC07310803110318013E8D
:1004580003192F2ABD072808AE002E08F2002C0821
:100468000A128A1181270A128A1173088312031348
:10047800BF007208BE003E08AE003F08AF00B001E2
:10048800B10108300310AE0DAF0DB00DB10DFF3E38
:10049800031D462A2E08BA072F0803110318013E28
:1004A8000319572ABB07300803110318013E031923
:1004B8005E2ABC07310803110318013E0319652A97
:1004C800BD073508AE003608AF003708B000380859
:1004D800B10018300310B10CB00CAF0CAE0CFF3EDD
:1004E800031D6E2A2E08BA072F0803110318013EB0
:1004F80003197F2ABB07300803110318013E0319AB
:10050800862ABC07310803110318013E03198D2AF6
:10051800BD070830AE000310B50DB60DB70DB80D08
:10052800AE0B8F2A39083407AE00AF01AF0D2E0885
:10053800823EBE002F080318013EFF3EBF00C12ABD
:100548000130AE000310BA0DBB0DBC0DBD0DAE0BD6
:10055800A62AB81FB02AB12AB22A3A140130AE002E
:100568000310B50DB60DB70DB80DAE0BB42AFF309C
:10057800BE070318BF0AFF30BF07BC1FC42AC52A1D
:10058800A42AB401B81FC92ACA2AE62AFF303505A9
:10059800AE00FF303605AF00FF303705B0007F30C2
:1005A8003805B100310830042F042E040319DD2A60
:1005B800DE2AE12AB401B40AE62A3A1CE42AE52A2A
:1005C800E62ADE2A34080319EA2AEB2A1C2B013012
:1005D800BA07003003180130BB0700300318013098
:1005E800BC07003003180130BD073D1CFC2AFD2A5A
:1005F8001C2B3A08AE003B08AF003C08B0003D0891
:10060800B1000130B200310DB10CB00CAF0CAE0C22
:10061800B20B072B3108BD003008BC002F08BB0007
:100628002E08BA000130BE070318BF0A0030BF0702
:100638003F08803AFF0080307F02031D252BFF30E2
:100648003E02031C282B292B342B7F3083120313E3
:10065800BD008030BC000030BB000030BA00692B00
:10066800831203133F08803AFF0080307F02031D86
:100678003F2B01303E020318422B432B4F2B0030F7
:1006880083120313BD000030BC000030BB000030F3
:10069800BA00B301692B831203133E08AE002E087B
:1006A800B900FF30BA05FF30BB057F30BC0500300C
:1006B800BD05391C602B612B622BBC173908AE00B5
:1006C80003102E0CAF002F08BD003308AE002E0813
:1006D800BD043D08A9003C08A8003B08A7003A084B
:1006E800A6000800F4002E2C8316031305148316A5
:1006F80003170814C330831203139F05622C831653
:1007080003138514831603178814831203131F0811
:10071800C33904389F00622C83160313051583160A
:1007280003170815831203131F08C33908389F00DD
:10073800622C8316031385158316031788158312F5
:1007480003131F08C3390C389F00622C8316031348
:100758008516831603170816831203131F08C33957
:1007680010389F00622C831603130914831603178D
:100778008816831203131F08C33914389F00622C8C
:100788008316031309158316031708178312031317
:100798001F08C33918389F00622C83160313891564
:1007A800831603178817831203131F08C3391C38CD
:1007B8009F00622C8316031306158316031709146A
:1007C800831203131F08C33920389F00622C831635
:1007D80003138615831603178914831203131F083E
:1007E800C33924389F00622C83160313861483169A
:1007F80003170915831203131F08C33928389F00EC
:10080800622C8316031306168316031789158312A1
:1008180003131F08C3392C389F00622C8316031357
:100828000614831603170916831203131F08C33906
:1008380030389F00622C831603138616831603171D
:100848008916831203131F08C33934389F00622C9A
:100858000030712C7408F200F3017308003A031990
:10086800362C2C2C7208003A0319782B013A0319FC
:10087800832B033A0319902B013A03199D2B073A4E
:100888000319AA2B013A0319B72B033A0319C42BEE
:10089800013A0319D12B0F3A0319DE2B013A031938
:1008A800EB2B033A0319F82B013A0319052C073AE5
:1008B8000319122C013A03191F2C2C2C1F140D306C
:1008C800F200F20B652C831203139F149F1C6D2CEE
:1008D8006E2C6F2C6A2C1F101E0808000A128A1131
:1008E800AA270A128A110A128A11D3270A128A1110
:1008F80000300A128A1176230A128A11831203130E
:10090800C9004908D20052080A128A1149270A1256
:100918008A11831203134308D1004208D00041080A
:10092800CF004008CE005108F5005008F4004F08E9
:10093800F3004E08F2000A128A1195260A128A114B
:1009480072080A128A1111270A128A1183120313D4
:100958004308CD004208CC004108CB004008CA003B
:100968003E30F500B430F400A230F3003430F20029
:100978005108F9005008F8004F08F7004E08F60033
:100988000A128A11F1250A128A110318CC2CCD2CCF
:10099800D22C831203130814881008113E30F50076
:1009A800B430F400A230F3003430F20083120313A1
:1009B8005108F9005008F8004F08F7004E08F600F3
:1009C8000A128A11F1250A128A11031CEC2CED2C4B
:1009D8000D2D831203135108F5005008F4004F0839
:1009E800F3004E08F2003E30F9008030F800003085
:1009F800F7000030F6000A128A11F1250A128A114E
:100A0800031C072D082D0D2D8312031388140810BD
:100A18000811831203135108F5005008F4004F0819
:100A2800F3004E08F2003E30F9008030F800003044
:100A3800F7000030F6000A128A11F1250A128A110D
:100A48000318272D282D2D2D831203130815881020
:100A5800081083120313520886007C2C0A128A118C
:100A68000C2883120313A000200803193C2D3D2DE8
:100A7800512DF51F402D412D512D7209A2007309EA
:100A8800A3007409A4007509A500A20A0319A30A02
:100A98000319A40A0319A50A592D7508A500740895
:100AA800A4007308A3007208A200750874047304F4
:100AB8007204031D602D612D6A2D0030F500003091
:100AC800F4000030F3000030F200F02D9630F6000C
:100AD8007608A1007C2D0130F6007608A1070130C8
:100AE8000310A50CA40CA30CA20CFF3E031D742D2F
:100AF800FE302505031D812D822D6F2D9E2D013081
:100B0800F6007608A1070130A2070030031801306B
:100B1800A307003003180130A40700300318013080
:100B2800A50701300310A50CA40CA30CA20CFF3ED2
:100B3800031D962DFF302505031DA32DA42D832D00
:100B4800B02D0130A1020130F6000310A20DA30D53
:100B5800A40DA50DF60BA92DA41BB32DB42DBA2DEC
:100B6800023021020318B92DBA2DA52D2118BD2D4B
:100B7800BE2DC62DFF30A205FF30A3057F30A4058A
:100B8800FF30A5050310A10C2108F600F701F801B4
:100B9800F90118300310F60DF70DF80DF90DFF3EA9
:100BA800031DCE2D7608A2047708A3047808A404B0
:100BB8007908A50420080319E22DE32DE82DF51F77
:100BC800E62DE72DE82DA5172508F5002408F400E3
:100BD8002308F3002208F20008000030720583128F
:100BE8000313A00000307305A10080307405A20033
:100BF8007F307505A3002308220421042004031D67
:100C0800062E072E0F2E0030F5000030F4000030BD
:100C1800F3000030F20000307605A00000307705C0
:100C2800A10080307805A2007F307905A300230851
:100C3800220421042004031D222E232E2B2E0030F3
:100C4800F9000030F8000030F7000030F600F51F1A
:100C58002E2E2F2E532E0030A0000030A100003081
:100C6800A2008030A3007208A0027308031C730F4F
:100C78003E2E3F2EA1027408031C740F442E452EED
:100C8800A2027508031C750F4A2E4B2EA3022308D7
:100C9800F5002208F4002108F3002008F200F91FEB
:100CA800562E572E7B2E0030A0000030A1000030B9
:100CB800A2008030A3007608A0027708031C770FF3
:100CC800662E672EA1027808031C780F6C2E6D2EF5
:100CD800A2027908031C790F722E732EA30223082F
:100CE800F9002208F8002108F7002008F6008030F3
:100CF800F5068030F90679087502031D8D2E7808EF
:100D08007402031D8D2E77087302031D8D2E76083D
:100D180072020318902E912E932E0310942E031412
:100D280008000310740D750D83120313A00020082A
:100D3800F7007708031DA12EA22EAB2E0030F50078
:100D48000030F4000030F3000030F200102F720879
:100D5800A0007308A1007408A2007508A3001F3042
:100D68000310A30CA20CA10CA00CFF3E031DB42E73
:100D78002008A4002408F600F417FF30F205FF301D
:100D8800F305FF30F4050030F5059630F702F71F3C
:100D9800CE2ECF2EE92E7708803A973E0318D52E0F
:100DA800D62ED72EA22E01300310F50CF40CF30C1E
:100DB800F20CFF3E031DD82E0130A0002008F707D3
:100DC800031DE72EE82ED72E002F20307702031CB4
:100DD800EE2EEF2EFB2EA22E0130A0000310F20DF6
:100DE800F30DF40DF50DA00BF22E0130F702770884
:100DF800031DFF2E002FF02E76080319042F052F50
:100E0800102FF209F309F409F509F20A0319F30A94
:100E18000319F40A0319F50A080083120313C8001A
:100E28004030A9002330A8003330A7003330A60093
:100E38004808C400C501C601C7014708F5004608AF
:100E4800F4004508F3004408F20001300A128A1140
:100E580035250A128A11750883120313AD00740828
:100E6800AC007308AB007208AA000A128A11152098
:100E78000A128A11831203132908C3002808C20022
:100E88002708C1002608C000080083120313C80001
:100E98003C30A900A030A8009030A7002E30A60052
:100EA8004808C400C501C601C7014708F50046083F
:100EB800F4004508F3004408F20001300A128A11D0
:100EC80035250A128A11750883120313AD007408B8
:100ED800AC007308AB007208AA000A128A11152028
:100EE8000A128A11831203132908C3002808C200B2
:100EF8002708C1002608C000080083120313A400B5
:100F0800A001A1017208F400F5017408A200750897
:100F1800A300241C902F912F972F2208A0070318B5
:100F2800A10A2308A10701300310A20DA30DFF3E5B
:100F3800031D982F0310A40C2408031DA42FA52F0C
:100F48008D2F2108F3002008F200080083160313F0
:100F58008601831203138601831603138801831203
:100F68000313880183160317880189010A128A115D
:100F7800C0270A128A110800831203131F083F3979
:100F880040389F00831603139F0108008B170B1727
:100F980071088A00700E8300FE0E7E0E09008B1702
:040FA8000B1708001B
:04400E00D120FF3F7F
:00000001FF
