:020000040000FA
:060000000A128A110C280F
:10000800FE00030EF1000A08F2000A128A11E82E17
:100018000A128A110F28F801F901FA018312031351
:10002800D401D501D601D70183010A128A11352DD1
:10003800831203132D088039B2003208B7002D0847
:10004800B2003207B3003308BD00AC1F2C282D289E
:100058002E283D143D0803193228332842283D0A2A
:10006800031D3728382840280030AD000030AC0088
:100078000030AB000030AA00AC174A280030AD00B1
:100088000030AC000030AB000030AA0031088039E5
:10009800B2003208B7063108B2003207B30033089D
:1000A800B800B01F582859285A2838143808031996
:1000B8005E285F286E28380A031D632864286C2888
:1000C8000030B1000030B0000030AF000030AE00AA
:1000D800B01776280030B1000030B0000030AF0013
:1000E8000030AE00380803197A287B2880283D089C
:1000F800031D7F28802889280030AD000030AC001F
:100108000030AB000030AA007C2B2A08B20032086D
:10011800F30030080A128A11BF260A128A117408DD
:1001280083120313C3007308C2004208B200B3016C
:10013800B401B5013508BC003408BB003308BA0067
:100148003208B9004308B200B301B401B50135085B
:10015800C1003408C0003308BF003208BE002B08B5
:10016800B2003208F3002F080A128A11BF260A12B9
:100178008A11740883120313C3007308C20042086B
:10018800B200B301B401B5013208B907330803114D
:100198000318013E0319D128BA07340803110318BC
:1001A800013E0319D828BB07350803110318013E7F
:1001B8000319DF28BC074308B200B301B401B50135
:1001C8003208BE07330803110318013E0319ED284E
:1001D800BF07340803110318013E0319F428C007A8
:1001E800350803110318013E0319FB28C1072C0821
:1001F800B2003208F3002E080A128A11BF260A122A
:100208008A11740883120313C3007308C2004208DA
:10021800B200B301B401B5013208B90733080311BC
:100228000318013E03191929BA07340803110318E2
:10023800013E03192029BB07350803110318013EA5
:1002480003192729BC074308B200B301B401B5015B
:100258003208BE07330803110318013E0319352974
:10026800BF07340803110318013E03193C29C007CE
:10027800350803110318013E03194329C107083043
:10028800B2000310B90DBA0DBB0DBC0DB20B452958
:100298002B08B2003208F3002E080A128A11BF2672
:1002A8000A128A11740883120313C3007308C20068
:1002B8004208B2004308B300B401B5013208B907D7
:1002C800330803110318013E03196B29BA073408D0
:1002D80003110318013E03197229BB0735080311DE
:1002E8000318013E03197929BC072A08B20032080D
:1002F800F3002F080A128A11BF260A128A117408FD
:1003080083120313C3007308C2004208B2004308F3
:10031800B300B401B5013208B90733080311031853
:10032800013E03199829BA07340803110318013E3E
:1003380003199F29BB07350803110318013E031948
:10034800A629BC070830B2000310B90DBA0DBB0DC1
:10035800BC0DB20BA8292A08B2003208F3002E08F7
:100368000A128A11BF260A128A117408831203130B
:10037800C3007308C2004208B2004308B300B401C6
:10038800B5013208B907330803110318013E0319F0
:10039800CE29BA07340803110318013E0319D529D9
:1003A800BB07350803110318013E0319DC29BC07F4
:1003B8002B08B2003208F30030080A128A11BF264F
:1003C8000A128A11740883120313C3007308C20047
:1003D8004208B2004308B300B401B5013208BE07B1
:1003E800330803110318013E0319FB29BF0734081A
:1003F80003110318013E0319022AC0073508031127
:100408000318013E0319092AC1072C08B200320853
:10041800F3002F080A128A11BF260A128A117408DB
:1004280083120313C3007308C2004208B2004308D2
:10043800B300B401B5013208BE073308031103182D
:10044800013E0319282ABF07340803110318013E87
:1004580003192F2AC007350803110318013E031991
:10046800362AC1072C08B2003208F30030080A12F5
:100478008A11BF260A128A11740883120313C30053
:100488007308C2004208B2004308B300B401B501C2
:1004980008300310B20DB30DB40DB50DFF3E031DAA
:1004A8004D2A3208BE07330803110318013E031909
:1004B8005E2ABF07340803110318013E0319652A91
:1004C800C007350803110318013E03196C2AC10738
:1004D8003908B2003A08B3003B08B4003C08B5003C
:1004E80018300310B50CB40CB30CB20CFF3E031D4E
:1004F800752A3208BE07330803110318013E031991
:10050800862ABF07340803110318013E03198D2AF0
:10051800C007350803110318013E0319942AC107BF
:100528000830B2000310B90DBA0DBB0DBC0DB20BEB
:10053800962A3D083807B200B301B30D3208823E4F
:10054800C20033080318013EFF3EC300C82A013029
:10055800B2000310BE0DBF0DC00DC10DB20BAD2A08
:10056800BC1FB72AB82AB92A3E140130B2000310BA
:10057800B90DBA0DBB0DBC0DB20BBB2AFF30C207BB
:100588000318C30AFF30C307C01FCB2ACC2AAB2AE3
:10059800B801BC1FD02AD12AED2AFF303905B20094
:1005A800FF303A05B300FF303B05B4007F303C050F
:1005B800B50035083404330432040319E42AE52A63
:1005C800E82AB801B80AED2A3E1CEB2AEC2AED2AE3
:1005D800E52A38080319F12AF22A232B0130BE072D
:1005E800003003180130BF07003003180130C0077E
:1005F800003003180130C107411C032B042B232BA7
:100608003E08B2003F08B3004008B4004108B500F6
:100618000130B600350DB50CB40CB30CB20CB60BEA
:100628000E2B3508C1003408C0003308BF0032085B
:10063800BE000130C2070318C30A0030C3074308CD
:10064800803AFF0080307F02031D2C2BFF304202CE
:10065800031C2F2B302B3B2B7F3083120313C1003D
:100668008030C0000030BF000030BE00702B831205
:1006780003134308803AFF0080307F02031D462B96
:10068800013042020318492B4A2B562B00308312A3
:100698000313C1000030C0000030BF000030BE00AE
:1006A800B701702B831203134208B2003208BD0051
:1006B800FF30BE05FF30BF057F30C0050030C105E3
:1006C8003D1C672B682B692BC0173D08B20003102F
:1006D800320CB3003308C1003708B2003208C10435
:1006E8004108AD004008AC003F08AB003E08AA0036
:1006F8000800F500352C8316031305148316031719
:100708000814C330831203139F05692C831603133F
:100718008514831603178814831203131F08C3391B
:1007280004389F00692C83160313051583160317D5
:100738000815831203131F08C33908389F00692C52
:10074800831603138515831603178815831203135D
:100758001F08C3390C389F00692C831603138516AC
:10076800831603170816831203131F08C33910389A
:100778009F00692C83160313091483160317881620
:10078800831203131F08C33914389F00692C83167A
:1007980003130915831603170817831203131F0879
:1007A800C33918389F00692C8316031389158316DB
:1007B80003178817831203131F08C3391C389F00B7
:1007C800692C83160313061583160317091483125D
:1007D80003131F08C33920389F00692C831603139D
:1007E8008615831603178914831203131F08C33948
:1007F80024389F00692C8316031386148316031765
:100808000915831203131F08C33928389F00692C60
:100818008316031306168316031789158312031309
:100828001F08C3392C389F00692C8316031306143C
:10083800831603170916831203131F08C3393038A8
:100848009F00692C831603138616831603178916CF
:10085800831203131F08C33934389F00692C0030F2
:10086800782C7508F300F4017408003A03193D2C3C
:10087800332C7308003A03197F2B013A03198A2B8A
:10088800033A0319972B013A0319A42B073A0319C2
:10089800B12B013A0319BE2B033A0319CB2B013AAA
:1008A8000319D82B0F3A0319E52B013A0319F22B38
:1008B800033A0319FF2B013A03190C2C073A0319C1
:1008C800192C013A0319262C332C1F141730F30066
:1008D800F30B6C2C831203139F149F1C742C752C20
:1008E800762C712C1F101E08080083120313A40015
:1008F80024080319802C812C952CF61F842C852C18
:10090800952C7309A6007409A7007509A800760933
:10091800A900A60A0319A70A0319A80A0319A90A0C
:100928009D2C7608A9007508A8007408A70073080C
:10093800A6007608750474047304031DA42CA52C62
:10094800AE2C0030F6000030F5000030F400003026
:10095800F300342D9630A0002008A500C02C0130EB
:10096800A0002008A50701300310A90CA80CA70CAB
:10097800A60CFF3E031DB82CFE302905031DC52C0F
:10098800C62CB32CE22C0130A0002008A5070130AA
:10099800A607003003180130A707003003180130FC
:1009A800A807003003180130A90701300310A90C6B
:1009B800A80CA70CA60CFF3E031DDA2CFF30290556
:1009C800031DE72CE82CC72CF42C0130A5020130BC
:1009D800A0000310A60DA70DA80DA90DA00BED2CC6
:1009E800A81BF72CF82CFE2C023025020318FD2C2E
:1009F800FE2CE92C2518012D022D0A2DFF30A60505
:100A0800FF30A7057F30A805FF30A9050310A50C06
:100A18002508A000A101A201A30118300310A00D10
:100A2800A10DA20DA30DFF3E031D122D2008A60443
:100A38002108A7042208A8042308A90424080319E4
:100A4800262D272D2C2DF61F2A2D2B2D2C2DA917C1
:100A58002908F6002808F5002708F4002608F300FE
:100A680008000A128A1105270A128A110A128A1125
:100A780038270A128A110A128A111B270A128A11A8
:100A880000300A128A117D230A128A118312031375
:100A9800CC00CD014C08D2004D08D30052080A12F0
:100AA8008A1187260A128A11831203134708D10074
:100AB8004608D0004508CF004408CE003E30A300C9
:100AC800B430A200A230A1003430A0005108A70021
:100AD8005008A6004F08A5004E08A4000A128A1163
:100AE800E3250A128A1103187A2D7B2D802D831293
:100AF80003130814881008113E3083120313A3004F
:100B0800B430A200A230A1003430A0005108A700E0
:100B18005008A6004F08A5004E08A4000A128A1122
:100B2800E3250A128A11031C9A2D9B2DBB2D8312D3
:100B380003135108A3005008A2004F08A1004E0853
:100B4800A0003E30A7008030A6000030A50000308D
:100B5800A4000A128A11E3250A128A11031CB52D72
:100B6800B62DBB2D831203138814081008118312A5
:100B780003135108A3005008A2004F08A1004E0813
:100B8800A0003E30A7008030A6000030A50000304D
:100B9800A4000A128A11E3250A128A110318D52D16
:100BA800D62DDB2D83120313081588100810831225
:100BB800031352088600442D0A128A110C280030AB
:100BC800831203132005F30000302105F400803060
:100BD8002205F5007F302305F600760875047404B5
:100BE8007304031DF82DF92D012E0030A3000030E9
:100BF800A2000030A1000030A00000302405F3005E
:100C080000302505F40080302605F5007F302705E3
:100C1800F6007608750474047304031D142E152E4B
:100C28001D2E0030A7000030A6000030A5000030BF
:100C3800A400A31F202E212E452E0030F3000030E3
:100C4800F4000030F5008030F6002008F302210897
:100C5800031C210F302E312EF4022208031C220F10
:100C6800362E372EF5022308031C230F3C2E3D2E6B
:100C7800F6027608A3007508A2007408A10073089C
:100C8800A000A71F482E492E6D2E0030F30000301B
:100C9800F4000030F5008030F6002408F30225083F
:100CA800031C250F582E592EF4022608031C260F64
:100CB8005E2E5F2EF5022708031C270F642E652E73
:100CC800F6027608A7007508A6007408A500730840
:100CD800A4008030A3068030A70627082302031D3E
:100CE8007F2E26082202031D7F2E25082102031DC0
:100CF8007F2E240820020318822E832E852E0310AF
:100D0800862E03140800F7003C3083120313AD004D
:100D1800A030AC009030AB002E30AA007708C80095
:100D2800C901CA01CB014B08F6004A08F500490879
:100D3800F4004808F30001300A128A1179240A12D3
:100D48008A11760883120313B1007508B00074087D
:100D5800AF007308AE000A128A111C200A128A1109
:100D6800831203132D08C7002C08C6002B08C500E2
:100D78002A08C400080083120313A400A001A101DB
:100D88007308F500F6017508A2007608A300241C74
:100D9800CE2ECF2ED52E2208A0070318A10A23088D
:100DA800A10701300310A20DA30DFF3E031DD62E8F
:100DB8000310A40C2408031DE22EE32ECB2E2108D9
:100DC800F4002008F3000800831203138C1DED2E95
:100DD800EE2EFE2E831603131418F32EF42EFA2E7D
:100DE800831203131308F0007008FA0083125208E4
:100DF80093008C1172088A00710E8300FE0E7E0E1D
:100E080009008316031386018312031386018316D0
:100E180003138801831203138801831603178801BB
:100E280089010A128A112E270A128A1108008316CC
:100E38000313871587128516243083120313940031
:100E4800831603139401831203138C11831603135F
:100E58008C150800831203131F083F3940389F0080
:0E0E6800831603139F0108008B170B17080059
:04400E00D120FF3F7F
:00000001FF
