:020000040000FA
:060000000A128A110C280F
:10000800FE00030EFC000A08FD000A128A11D22F16
:100018000A128A110F2883120313DB01DC01DD01A8
:1000280083010A128A117A2C83120313310880394A
:10003800B6003608BB003108B6003607B7003708E7
:10004800C100B01F282829282A284114410803196B
:100058002E282F283E28410A031D332834283C28FF
:100068000030B1000030B0000030AF000030AE000A
:10007800B01746280030B1000030B0000030AF00A3
:100088000030AE0035088039B6003608BB063508A2
:10009800B6003607B7003708C000B41F54285528E3
:1000A80056284014400803195A285B286A28400A31
:1000B800031D5F28602868280030B5000030B400B0
:1000C8000030B3000030B200B41772280030B50019
:1000D8000030B4000030B3000030B200400803190B
:1000E800762877287C284108031D7B287C288528CA
:1000F8000030B1000030B0000030AF000030AE007A
:10010800782B2E08B6003608A00034080A128A1583
:100118009F270A128A11831203132108C700200897
:10012800C6004608B600B701B801B9013908BF00D2
:100138003808BE003708BD003608BC004708B600BE
:10014800B701B801B9013908C5003808C400370833
:10015800C3003608C2002F08B6003608A0003308CE
:100168000A128A159F270A128A118312031321087B
:10017800C7002008C6004608B600B701B801B90193
:100188003608BC07370803110318013E0319CD28A8
:10019800BD07380803110318013E0319D428BE0708
:1001A800390803110318013E0319DB28BF07470864
:1001B800B600B701B801B9013608C20737080311FC
:1001C8000318013E0319E928C30738080311031867
:1001D800013E0319F028C407390803110318013E2A
:1001E8000319F728C5073008B6003608A0003208FA
:1001F8000A128A159F270A128A11831203132108EB
:10020800C7002008C6004608B600B701B801B90102
:100218003608BC07370803110318013E03191529CE
:10022800BD07380803110318013E03191C29BE072E
:10023800390803110318013E03192329BF0747088A
:10024800B600B701B801B9013608C207370803116B
:100258000318013E03193129C3073808031103188D
:10026800013E03193829C407390803110318013E50
:1002780003193F29C5070830B6000310BC0DBD0D92
:10028800BE0DBF0DB60B41292F08B6003608A000D9
:1002980032080A128A159F270A128A118312031339
:1002A8002108C7002008C6004608B6004708B7005E
:1002B800B801B9013608BC07370803110318013E15
:1002C80003196729BD07380803110318013E0319EC
:1002D8006E29BE07390803110318013E0319752951
:1002E800BF072E08B6003608A00033080A128A1580
:1002F8009F270A128A11831203132108C7002008B6
:10030800C6004608B6004708B700B801B901360864
:10031800BC07370803110318013E03199429BD07C8
:10032800380803110318013E03199B29BE07390831
:1003380003110318013E0319A229BF070830B600AC
:100348000310BC0DBD0DBE0DBF0DB60BA4292E08A4
:10035800B6003608A00032080A128A159F270A122A
:100368008A11831203132108C7002008C600460813
:10037800B6004708B700B801B9013608BC07370806
:1003880003110318013E0319CA29BD0738080311D0
:100398000318013E0319D129BE07390803110318B0
:1003A800013E0319D829BF072F08B6003608A00058
:1003B80034080A128A159F270A128A118312031316
:1003C8002108C7002008C6004608B6004708B7003D
:1003D800B801B9013608C207370803110318013EEE
:1003E8000319F729C307380803110318013E031935
:1003F800FE29C407390803110318013E0319052A09
:10040800C5073008B6003608A00033080A128A1556
:100418009F270A128A11831203132108C700200894
:10042800C6004608B6004708B700B801B901360843
:10043800C207370803110318013E0319242AC3070A
:10044800380803110318013E03192B2AC407390879
:1004580003110318013E0319322AC5073008B600F4
:100468003608A00034080A128A159F270A128A1132
:10047800831203132108C7002008C6004608B600E7
:100488004708B700B801B90108300310B60DB70D19
:10049800B80DB90DFF3E031D492A3608C2073708B3
:1004A80003110318013E03195A2AC3073808031118
:1004B8000318013E0319612AC407390803110318F8
:1004C800013E0319682AC5073C08B6003D08B70075
:1004D8003E08B8003F08B90018300310B90CB80C32
:1004E800B70CB60CFF3E031D712A3608C207370841
:1004F80003110318013E0319822AC30738080311A0
:100508000318013E0319892AC4073908031103187F
:10051800013E0319902AC5070830B6000310BC0D28
:10052800BD0DBE0DBF0DB60B922A41084007B6009F
:10053800B701B70D3608823EC60037080318013EDA
:10054800FF3EC700C42A0130B6000310C20DC30D18
:10055800C40DC50DB60BA92ABF1FB32AB42AB52AE4
:1005680042140130B6000310BC0DBD0DBE0DBF0D09
:10057800B60BB72AFF30C6070318C70AFF30C707EC
:10058800C41FC72AC82AA72AC001BF1FCC2ACD2A40
:10059800E92AFF303C05B600FF303D05B700FF30C3
:1005A8003E05B8007F303F05B900390838043704E4
:1005B80036040319E02AE12AE42AC001C00AE92A1C
:1005C800421CE72AE82AE92AE12A40080319ED2A09
:1005D800EE2A1F2B0130C207003003180130C30771
:1005E800003003180130C407003003180130C50774
:1005F800451CFF2A002B1F2B4208B6004308B700F2
:100608004408B8004508B9000130BA00390DB90CE2
:10061800B80CB70CB60CBA0B0A2B3908C500380849
:10062800C4003708C3003608C2000130C6070318E3
:10063800C70A0030C7074708803AFF0080307F02AA
:10064800031D282BFF304602031C2B2B2C2B372B8A
:100658007F3083120313C5008030C4000030C3000C
:100668000030C2006C2B831203134708803AFF0046
:1006780080307F02031D422B013046020318452BB0
:10068800462B522B003083120313C5000030C400E0
:100698000030C3000030C200BB016C2B831203136F
:1006A8004608B6003608C100FF30C205FF30C30552
:1006B8007F30C4050030C505411C632B642B652BB6
:1006C800C4174108B6000310360CB7003708C50038
:1006D8003B08B6003608C5044508B1004408B00018
:1006E8004308AF004208AE00080083120313A200BB
:1006F800332C831603130514831603170814C33009
:10070800831203139F05672C83160313851483161E
:1007180003178814831203131F08C33904389F0072
:10072800672C831603130515831603170815831200
:1007380003131F08C33908389F00672C8316031357
:100748008515831603178815831203131F08C339E9
:100758000C389F00672C831603138516831603171E
:100768000816831203131F08C33910389F00672C1B
:1007780083160313091483160317881683120313A9
:100788001F08C33914389F00672C831603130915F3
:10079800831603170817831203131F08C339183861
:1007A8009F00672C83160313891583160317881770
:1007B800831203131F08C3391C389F00672C831644
:1007C80003130615831603170914831203131F084E
:1007D800C33920389F00672C8316031386158316A8
:1007E80003178914831203131F08C33924389F0081
:1007F800672C8316031386148316031709158312AF
:1008080003131F08C33928389F00672C8316031366
:100818000616831603178915831203131F08C33995
:100828002C389F00672C83160313061483160317AE
:100838000916831203131F08C33930389F00672C29
:100848008316031386168316031789168312031358
:100858001F08C33934389F00672C0030792C2208D0
:10086800A000A1012108003A03193B2C312C2008D3
:10087800003A03197D2B013A0319882B033A03190F
:10088800952B013A0319A22B073A0319AF2B013A0A
:100898000319BC2B033A0319C92B013A0319D62BA8
:1008A8000F3A0319E32B013A0319F02B033A031902
:1008B800FD2B013A03190A2C073A0319172C013AA0
:1008C8000319242C312C1F140C3083120313A0009D
:1008D800A00B6C2C0000831203139F149F1C752C13
:1008E800762C772C722C1F101E0808000A128A1505
:1008F80089270A128A110A128A1569270A128A1187
:100908000A128A1576270A128A1100300A128A11E9
:1009180079230A128A1183120313D1005108DA00CD
:100928005A080A128A15C8270A128A118312031351
:100938004B08D9004A08D8004908D7004808D6000B
:100948005908A3005808A2005708A1005608A0009B
:100958000A128A11A4260A128A1183120313200884
:100968000A128A119A270A128A11831203134B0852
:10097800D5004A08D4004908D3004808D2003E30C0
:10098800A300B430A200A230A1003430A00059085E
:10099800A7005808A6005708A5005608A4000A1280
:1009A8008A1100260A128A110318DB2CDC2CE12C90
:1009B800831203130814881008113E30831203139E
:1009C800A300B430A200A230A1003430A00059081E
:1009D800A7005808A6005708A5005608A4000A1240
:1009E8008A1100260A128A11031CFB2CFC2C1C2DD0
:1009F800831203135908A3005808A2005708A1003E
:100A08005608A0003E30A7008030A6000030A500A0
:100A18000030A4000A128A1100260A128A11031C47
:100A2800162D172D1C2D8312031388140810081176
:100A3800831203135908A3005808A2005708A100FD
:100A48005608A0003E30A7008030A6000030A50060
:100A58000030A4000A128A1100260A128A1103180B
:100A6800362D372D3C2D83120313081588100810D6
:100A7800831203135A088600892C0A128A110C283B
:100A880083120313A800280803194B2D4C2D602D41
:100A9800A31F4F2D502D602D2009AA002109AB005E
:100AA8002209AC002309AD00AA0A0319AB0A0319ED
:100AB800AC0A0319AD0A682D2308AD002208AC0062
:100AC8002108AB002008AA002308220421042004DE
:100AD800031D6F2D702D792D0030A3000030A2006A
:100AE8000030A1000030A000FF2D9630A40024089B
:100AF800A9008B2D0130A4002408A9070130031098
:100B0800AD0CAC0CAB0CAA0CFF3E031D832DFE30C4
:100B18002D05031D902D912D7E2DAD2D0130A400A6
:100B28002408A9070130AA07003003180130AB07D1
:100B3800003003180130AC07003003180130AD074E
:100B480001300310AD0CAC0CAB0CAA0CFF3E031D1E
:100B5800A52DFF302D05031DB22DB32D922DBF2DD0
:100B68000130A9020130A4000310AA0DAB0DAC0D91
:100B7800AD0DA40BB82DAC1BC22DC32DC92D023051
:100B880029020318C82DC92DB42D2918CC2DCD2D17
:100B9800D52DFF30AA05FF30AB057F30AC05FF30FF
:100BA800AD050310A90C2908A400A501A601A701F9
:100BB80018300310A40DA50DA60DA70DFF3E031DAB
:100BC800DD2D2408AA042508AB042608AC04270850
:100BD800AD0428080319F12DF22DF72DA31FF52DCB
:100BE800F62DF72DAD172D08A3002C08A2002B0811
:100BF800A1002A08A0000800003083120313200572
:100C0800A80000302105A90080302205AA007F3005
:100C18002305AB002B082A0429042804031D152EDC
:100C2800162E1E2E0030A3000030A2000030A100B6
:100C38000030A00000302405A80000302505A900D8
:100C480080302605AA007F302705AB002B082A0430
:100C580029042804031D312E322E3A2E0030A70015
:100C68000030A6000030A5000030A400A31F3D2ED0
:100C78003E2E622E0030A8000030A9000030AA00E5
:100C88008030AB002008A8022108031C210F4D2E3C
:100C98004E2EA9022208031C220F532E542EAA02FC
:100CA8002308031C230F592E5A2EAB022B08A3002E
:100CB8002A08A2002908A1002808A000A71F652E5D
:100CC800662E8A2E0030A8000030A9000030AA0045
:100CD8008030AB002408A8022508031C250F752EB8
:100CE800762EA9022608031C260F7B2E7C2EAA022C
:100CF8002708031C270F812E822EAB022B08A70082
:100D08002A08A6002908A5002808A4008030A30600
:100D18008030A70627082302031D9C2E26082202DE
:100D2800031D9C2E25082102031D9C2E2408200249
:100D380003189F2EA02EA22E0310A32E0314080022
:100D4800031083120313220D230DA4002408AA0004
:100D58002A08031DB02EB12EBA2E0030A300003091
:100D6800A2000030A1000030A0001F2F2008A4001E
:100D78002108A5002208A6002308A7001F30031099
:100D8800A70CA60CA50CA40CFF3E031DC32E24081B
:100D9800A8002808A900A217FF30A005FF30A10568
:100DA800FF30A2050030A3059630AA02AA1FDD2E47
:100DB800DE2EF82E2A08803A973E0318E42EE52EF8
:100DC800E62EB12E01300310A30CA20CA10CA00C2E
:100DD800FF3E031DE72E0130A4002408AA07031DC7
:100DE800F62EF72EE62E0F2F20302A02031CFD2E9A
:100DF800FE2E0A2FB12E0130A4000310A00DA10D64
:100E0800A20DA30DA40B012F0130AA022A08031D6D
:100E18000E2F0F2FFF2E29080319132F142F1F2F02
:100E2800A009A109A209A309A00A0319A10A031983
:100E3800A20A0319A30A08000310720D730DF40027
:100E48007408FA007A08031D2A2F2B2F342F00303C
:100E5800F3000030F2000030F1000030F000992F6C
:100E68007008F4007108F5007208F6007308F700BE
:100E78001F300310F70CF60CF50CF40CFF3E031DA5
:100E88003D2F7408F8007808F900F217FF30F005D4
:100E9800FF30F105FF30F2050030F3059630FA0215
:100EA800FA1F572F582F722F7A08803A973E031847
:100EB8005E2F5F2F602F2B2F01300310F30CF20CE5
:100EC800F10CF00CFF3E031D612F0130F400740893
:100ED800FA07031D702F712F602F892F20307A0297
:100EE800031C772F782F842F2B2F0130F400031049
:100EF800F00DF10DF20DF30DF40B7B2F0130FA021A
:100F08007A08031D882F892F792F790803198D2FC7
:100F18008E2F992FF009F109F209F309F00A031944
:100F2800F10A0319F20A0319F30A080083120313DA
:100F3800D0004030B1002330B0003330AF00333040
:100F4800AE005008CC00CD01CE01CF014F08A30060
:100F58004E08A2004D08A1004C08A00001300A125A
:100F68008A1144250A128A11831203132308B50033
:100F78002208B4002108B3002008B2000A128A111E
:100F880018200A128A11831203133108CB00300883
:100F9800CA002F08C9002E08C80008008B170B17B5
:100FA800831203138C1DD92FDA2FF92F83160313FD
:100FB8001418DF2FE02FE62F831203131308FB000A
:100FC8007B08DD0083125508F3005408F20053082B
:100FD800F1005208F0000A128A1120270A128A1119
:100FE80070088312031393008C117D088A007C0E0D
:080FF8008300FE0E7E0E0900CD
:101ED2008B170B170800831203131F083F39403872
:101EE2009F00831603139F010800831603138715AF
:101EF200871285162430831203139400831603136A
:101F02009401831203138C11831603138C1508009A
:101F120083160313860183120313860183160313A8
:101F2200880183120313880183160317880189012C
:101F32000A128A156C270A128A15080083120313E3
:101F4200A800A401A5012008A200A3012208A6005E
:101F52002308A700281CAE2FAF2FB52F2608A407F1
:101F62000318A50A2708A50701300310A60DA70D1F
:101F7200FF3E031DB62F0310A80C2808031DC22F15
:101F8200C32FAB2F2508A1002408A000080083124C
:101F92000313D0003C30B100A030B0009030AF004D
:101FA2002E30AE005008CC00CD01CE01CF014F083B
:101FB200A3004E08A2004D08A1004C08A000013069
:101FC2000A128A1144250A128A158312031323085E
:101FD200B5002208B4002108B3002008B2000A129A
:101FE2008A1118200A128A15831203133108CB00B2
:0E1FF2003008CA002F08C9002E08C8000800D9
:04400E00D120FF3F7F
:00000001FF
