:020000040000FA
:060000000A128A110C280F
:10000800FE00030EF1000A08F2000A128A11D82B2A
:100018000A128A110F28F901FA0183120313C10188
:10002800C20183010A128A11A12983120313B300A2
:100038002930AB002B08AE008A2925303606031973
:100048002628272833283608AB00330884002B08D5
:10005800831380000130AB002B08B3078A29B40151
:10006800B501B001280884000A128A1148240A122E
:100078008A110A128A1172240A128A11031C45284D
:100088004628862883120313B401B5010A30F30009
:100098000030F400831203133508F6003408F50025
:1000A8000A128A1109240A128A1174088312031386
:1000B800B5007308B400280884000A128A1148247D
:1000C8000A128A11D03EAB00FF3003180030AC0092
:1000D8002B08B4070318B50A2C08B5070130AB0084
:1000E8002B08A807280884000A128A1148240A1233
:1000F8008A110A128A1172240A128A110318852891
:1001080086284A28013083120313A807FF302807DE
:1001180084000A128A1148240A128A11B600AB0018
:10012800AC012C08003A03199A288A292B08003AAE
:1001380003199C29643A0319A5280D3A0319A5281F
:100148008A292E08840083130008B100840A000855
:10015800B2000230AB002B08AE07B21FB428B52896
:10016800BE280330AB002B08B004B109B209B10AAC
:100178000319B20AB601B60A3608AB002B07013ECE
:1001880084000A128A1148240A128A11AC000A1241
:100198008A1148240A128A11AD002D083202031D63
:1001A800D7282C0831020318DA28DB28DC28E628AF
:1001B8000130AB002B08B60705303606031DE528CD
:1001C800E628C028340835040319EB28EC28F82859
:1001D800300803390319F128F228F828FF30B4074A
:1001E8000318B50AFF30B5073508803A803C031D6F
:1001F800FF28340836020318022903290F2983121D
:1002080003133608AB00AC012B08B4022C08031CFE
:10021800B503B502132983120313B401B5013408D9
:10022800350403191829192930292030AB0033085F
:1002380084002B08831380000130AB002B08B30720
:10024800FF30B4070318B50AFF30B5073408350482
:10025800031D2F2930291929300803390319352995
:10026800362941292D30AB00330884002B0883132D
:1002780080000130AB002B08B3073608AB002B0811
:10028800AF0081290A30A3000030A4002F08AB007A
:100298002B07013E84000A128A1148240A128A1187
:1002A800F3000A128A1148240A128A11F40032084B
:1002B800F6003108F5000A128A1156230A128A112B
:1002C800740883120313A6007308A5000A128A1182
:1002D8009C230A128A11831203132308303EAC00B0
:1002E8002C08B6003608AB00330884002B088313AB
:1002F80080000130AB002B08B307FF30AB002B08A0
:10030800AF072F0A031D89298A2946290130A80722
:10031800FF30280784000A128A1148240A128A1119
:10032800AB002B08B6003608031D9B299C29212801
:10033800330884008313800108000A128A11A2245A
:100348000A128A11003083120313B1000030B00082
:100358002530AF008030AE000A128A11E3220A125B
:100368008A110A128A112E240A128A11073083125E
:100378000313C0001730BF006930BE00BE0BC2298E
:10038800BF0BC229C00BC229C9290A128A11C1246C
:100398000A128A111A3083120313BF00F730BE0005
:1003A800BE0BD429BF0BD429D92990300A128A113F
:1003B80084240A128A111A3083120313BF00F730FB
:1003C800BE00BE0BE529BF0BE529EA290A128A11EE
:1003D800C1240A128A111A3083120313BF00F7309E
:1003E800BE00BE0BF529BF0BF529FA2991308312FF
:1003F800031393000A128A11C9240A128A111A30A7
:1004080083120313BF00F730BE00BE0B092ABF0BCF
:10041800092A0E2A0A128A11AD240A128A11831295
:100428000313BE003E08C1000A128A11C9240A1229
:100438008A110A128A11B8240A128A111A308312F0
:100448000313BF00F730BE00BE0B282ABF0B282AB3
:100458002D2A0A128A1195240A128A111A30831237
:100468000313BF00F730BE00BE0B382ABF0B382A73
:100478003D2A0A128A115E240A128A11C9290A120F
:100488008A110C2883120313A901A31F4C2A4D2A91
:100498005A2AA009A109A209A309A00A0319A10AB5
:1004A8000319A20A0319A30AA901A90AA71F5D2A09
:1004B8005E2A6D2AA409A509A609A709A40A031991
:1004C800A50A0319A60A0319A70A0130F30073083D
:1004D800A9060030AD000030AC000030AB000030A1
:1004E800AA00230822042104200403197C2A7D2A57
:1004F800CA2AA801A80A8D2A0130F3000310A00D0A
:10050800A10DA20DA30DF30B822A0130F30073088D
:10051800A807A31F902A912A802A0130F30003100C
:10052800AA0DAB0DAC0DAD0DF30B932A23082702D2
:10053800031DA82A22082602031DA82A210825022D
:10054800031DA82A20082402031CAB2AAC2ABB2AB4
:100558002008A4022108031C210FA5022208031C5D
:10056800220FA6022308031C230FA7022A14013016
:100578000310A30CA20CA10CA00CFF3E031DBC2A67
:100588000130A802031DC92ACA2A912A2908031979
:10059800CE2ACF2ADA2AAA09AB09AC09AD09AA0AD8
:1005A8000319AB0A0319AC0A0319AD0A2D08A300F5
:1005B8002C08A2002B08A1002A08A0000800831616
:1005C8000313181398161812181183160317871196
:1005D80083120313981718162E08B2002F08B300B9
:1005E8003008B4003108B50006300310B20DB30D61
:1005F800B40DB50DFF3E031DF92A3508A3003408D4
:10060800A2003308A1003208A0002E08B6002F0867
:10061800B7003008B8003108B90006300310B60D2D
:10062800B70DB80DB90DFF3E031D122B0030BA00EF
:100638001230BB007A30BC000030BD003608BA0268
:100648003708031C370F292B2A2BBB023808031C39
:10065800380F2F2B302BBC023908031C390F352BD0
:10066800362BBD023D08A7003C08A6003B08A500A4
:100678003A08A4000A128A1146220A128A11831221
:1006880003132308F7002208F6002108F5002008C4
:10069800F40074088316031399008B170B178C1634
:1006A8000C16080083120313A101A2017308740435
:1006B80003195F2B602B972BA001A00A6E2B01302A
:1006C8000310F30DF40DFF3E031D642B0130F700FA
:1006D8007708A007F41F712B722B632B01300310CE
:1006E800A10DA20DFF3E031D732B74087602031D96
:1006F8007F2B73087502031C822B832B8A2B7308AC
:10070800F5027408031CF603F602211401300310E5
:10071800F40CF30CFF3E031D8B2B0130A002031DCC
:10072800962B972B722B2208F4002108F30008005F
:1007380083120313230824040319A32BA42BD32BFC
:10074800A701A70AB22B01300310A30DA40DFF3E89
:10075800031DA82B0130F8007808A707A41FB52BA4
:10076800B62BA72B24082602031DBC2B2308250221
:10077800031CBF2BC02BC62B2308A5022408031C6F
:10078800A603A60201300310A40CA30CFF3E031D10
:10079800C72B0130A702031DD22BD32BB62B26085B
:1007A800A4002508A3000800831203138C1EDD2B68
:1007B800DE2BE32B8C121A08F0007008F90079037D
:1007C800031DE72BE82BEA2B0510022C02307906D3
:1007D800031DEF2BF02BF22B0514022C03307906A6
:1007E800031DF72BF82BFA2B8510022C0430790601
:1007F800031DFF2B002C022C8514022C72088A0082
:10080800710E8300FE0E7E0E0900F701F801731CBD
:100818000E2C0F2C152C7508F7070318F80A760804
:10082800F80701300310F50DF60DFF3E031D162CD9
:1008380001300310F40CF30CFF3E031D1D2C73084C
:100848007404031D282C292C0B2C7808F400770835
:10085800F300080083160313871507168312031382
:100868009301C030831603139400283083120313B6
:100878009400831603139101831203138C1109301A
:10088800831603139300080004308A000408840ABE
:1008980082070034013400340A34003464340034EC
:1008A800E83403341034273420342534323469349E
:1008B800203400340B3083120313B7003708A80024
:1008C8004108B800B9013808A9003908AA0042301F
:1008D8000A128A1119200A128A110800F400F30179
:1008E8003A3074020318792C7A2C822C3030740236
:1008F800031C7F2C802C822CF301F30A730C080054
:10090800F300730883120313930083160313141858
:100918008E2C8F2C892C0A128A11C9240A128A114A
:1009280008000A128A11C9240A128A1183160313AD
:1009380011151119A02CA12C9D2C08008316031742
:100948008801831603138501831203138501870128
:100958000800831603139115141CB32CB42CB02C67
:100968008312031313080800831603139116111634
:10097800111ABF2CC02CBC2C080083160313911429
:100988009118C72CC82CC42C0800831203138C1D83
:0A099800CE2CCF2CC92C8C110800C6
:04400E00D120FF3F7F
:00000001FF
