:060000000A128A110E280D
:10000800FE00030EF1000408F2000A08F3000A12C9
:100018008A11CF290A128A111128F9018313413054
:10002800840056300A128A1147220A128A11830163
:100038000A128A111F280A128A1128220A128A1102
:10004800003083120313B1000030B0002530AF0038
:100058008030AE000A128A115C210A128A110A1233
:100068008A11F0210A128A11073083120313C00083
:100078001730BF006930BE00BE0B4028BF0B4028B8
:10008800C00B402847280A128A114F220A128A11E7
:100098001A3083120313BF00F730BE00BE0B52287C
:1000A800BF0B5228572890300A128A110A220A12C6
:1000B8008A111A3083120313BF00F730BE00BE0B3B
:1000C8006328BF0B632868280A128A114F220A1274
:1000D8008A111A3083120313BF00F730BE00BE0B1B
:1000E8007328BF0B73287828913083120313930069
:1000F8000A128A1157220A128A111A30831203131C
:10010800BF00F730BE00BE0B8728BF0B87288C289E
:100118000A128A1133220A128A1183120313BE00AB
:100128003E08D5000A128A1157220A128A110A12A9
:100138008A113E220A128A111A3083120313BF0051
:10014800F730BE00BE0BA628BF0BA628AB280A12A4
:100158008A111B220A128A111A3083120313BF0054
:10016800F730BE00BE0BB628BF0BB628BB28472801
:100178000A128A110E2883120313A901A31FC52886
:10018800C628D328A009A109A209A309A00A03190E
:10019800A10A0319A20A0319A30AA901A90AA71FF8
:1001A800D628D728E628A409A509A609A709A40AD4
:1001B8000319A50A0319A60A0319A70A0130F400AE
:1001C8007408A9060030AD000030AC000030AB0068
:1001D8000030AA0023082204210420040319F5286A
:1001E800F6284329A801A80A06290130F4000310BB
:1001F800A00DA10DA20DA30DF40BFB280130F400F6
:100208007408A807A31F09290A29F9280130F4004E
:100218000310AA0DAB0DAC0DAD0DF40B0C29230882
:100228002702031D212922082602031D212921084E
:100238002502031D212920082402031C242925291D
:1002480034292008A4022108031C210FA502220832
:10025800031C220FA6022308031C230FA7022A143B
:1002680001300310A30CA20CA10CA00CFF3E031D2F
:1002780035290130A802031D422943290A292908E2
:100288000319472948295329AA09AB09AC09AD091B
:10029800AA0A0319AB0A0319AC0A0319AD0A2D08F7
:1002A800A3002C08A2002B08A1002A08A00008001F
:1002B80083160313181398161812181183160317A8
:1002C800871183120313981718162E08B2002F08E7
:1002D800B3003008B4003108B50006300310B20D81
:1002E800B30DB40DB50DFF3E031D72293508A300EB
:1002F8003408A2003308A1003208A0002E08B60076
:100308002F08B7003008B8003108B90006300310CC
:10031800B60DB70DB80DB90DFF3E031D8B29003082
:10032800BA001230BB007A30BC000030BD0036087D
:10033800BA023708031C370FA229A329BB023808C1
:10034800031C380FA829A929BC023908031C390F36
:10035800AE29AF29BD023D08A7003C08A6003B080E
:10036800A5003A08A4000A128A11BF200A128A11AD
:10037800831203132308F8002208F7002108F60067
:100388002008F50075088316031399008B170B17BF
:100398008C160C160800831203130C1ED429D529B9
:1003A800E7297908413E8400831300089900143036
:1003B8007906031DE029E129E329F901E72901303C
:1003C800F0007008F90773088A0072088400710E3B
:1003D8008300FE0E7E0E0900831603138715071689
:1003E800831203139301C03083160313940028303B
:0803F800831203139400831625
:1004000003139101831203138C1109308316031314
:1004100093000800F40074088312031393008316FA
:1004200003131418142A152A0F2A0A128A115722A4
:100430000A128A1108000A128A1157220A128A1116
:100440008316031311151119262A272A232A0800B7
:100450008316031788018316031385018312031380
:10046000850187010800831603139115141C392A8E
:100470003A2A362A8312031313080800831603133B
:1004800091161116111A452A462A422A08006400BC
:100490008001840A0406031900340406482A8316DE
:1004A000031391149118552A562A522A08008312D0
:0E04B00003138C1D5C2A5D2A572A8C1108004C
:04400E00D120FF3F7F
:00000E01F1
